:10000000C8EF33F033801200046ED8CF05F0E0CF94
:1000100006F00001E9CF0CF0EACF07F0E1CF08F0DD
:10002000E2CF09F0D9CF0AF0DACF0BF0F3CF12F01C
:10003000F4CF13F0FACF14F0F5CF15F0F6CF16F099
:10004000F7CF17F000C00EF001C00FF002C010F0A3
:1000500003C011F0F2AA30EF00F0F2B42CEF04F07C
:100060000EC000F00FC001F010C002F011C003F08C
:100070000CC0E9FF07C0EAFF078E08C0E1FF09C016
:10008000E2FF0AC0D9FF0BC0DAFF12C0F3FF13C0B2
:10009000F4FF14C0FAFF15C0F5FF16C0F6FF17C035
:1000A000F7FF045006C0E0FF05C0D8FF1000329EE5
:1000B00035EF04F0406A3F6A328E12008C981A0EB7
:1000C000006E002EFED70000C9507D0EC96EC730ED
:1000D000FEE3C95006C1C9FFC730FEE31A0E006E29
:1000E000002EFED70000C9507E0EC96EC730FEE359
:1000F000C95007C1C9FFC730FEE31A0E006E002EBB
:10010000FED700008C8812008C9A1A0E006E002E0A
:10011000FED70000C9507D0EC96EC730FEE3C9503E
:1001200006C1C9FFC730FEE31A0E006E002EFED7CF
:100130000000C9507E0EC96EC730FEE3C95007C12A
:10014000C9FFC730FEE31A0E006E002EFED7000076
:100150008C8A12008C981A0E006E002EFED70000BA
:10016000C9507D0EC96EC730FEE3C95006C1C9FF34
:10017000C730FEE31A0E006E002EFED70000C950F5
:100180007F0EC96EC730FEE3C9507F0EC96EC730FF
:10019000FEE3C9CF07F11A0E006E002EFED7000055
:1001A0008C88010107C101F0000112008C9A1A0E1F
:1001B000006E002EFED70000C9507D0EC96EC730FC
:1001C000FEE3C95006C1C9FFC730FEE31A0E006E38
:1001D000002EFED70000C9507F0EC96EC730FEE367
:1001E000C9507F0EC96EC730FEE3C9CF07F11A0EA2
:1001F000006E002EFED700008C8A010107C101F0BD
:100200000001120047522EE04750010A0FE0030A96
:1002100010E0060A11E00C0A12E0180A13E0300A96
:1002200014E0600A15E0C00A16E018D0300E016E26
:1002300045D0310E016E42D0320E016E3FD0330EEA
:10024000016E3CD0340E016E39D0350E016E36D0C1
:10025000360E016E33D0370E016E30D0800E016E37
:100260002DD02CD04850010A0FE0030A10E0060AF6
:1002700011E00C0A12E0180A13E0300A14E0600AD8
:1002800015E0C00A16E018D0380E016E17D0390EEE
:10029000016E14D0410E016E11D0420E016E0ED0CF
:1002A000430E016E0BD0440E016E08D0450E016E58
:1002B00005D0460E016E02D0800E016E7DEF04F077
:1002C000899001010B51700B006E00380C6F0F0EFE
:1002D0000C170001C85101010C5D0EE0100E0D6FEE
:1002E000C9500DC1C9FFC730FEE30CC1C8F0C950E9
:1002F000C8C0C9FFC730FEE30B510F0B80090D6F5B
:10030000C9500DC1C9FFC730FEE3C950C96AC73023
:10031000FEE3C9CF0EF189800EC101F00001120089
:100320001A0E01010B6F0001CBDF01C00AF11B0E99
:1003300001010B6F0001C4DF01C009F11C0E0101B6
:100340000B6F0001BDDF01C008F10101076B07C1A0
:1003500000F008C101F009C102F00AC103F0000178
:1003600012008E0E006E07C101F006C102F0036A92
:10037000015209E102C001F0026A080E005E01525A
:1003800002E1006A08D0D89001BE04D002360136DE
:100390000006F9D7019E120007C10EF101010B51B1
:1003A0000E1B0EAF05D0D894D89007BFD8802FD0A1
:1003B00007C10EF10AC10FF106510F5F06E00EAF43
:1003C00026D0D850010AD86E22D00BC10FF10751A8
:1003D0000F5F06E00EAF1BD0D850010AD86E17D0C1
:1003E0000CC10FF108510F5F06E00EAF10D0D850CE
:1003F000010AD86E0CD00DC10FF109510F5F06E054
:100400000EAF05D0D850010AD86E01D0D8900001A7
:10041000120001010651D8B471D0006E0A51D8B44F
:100420006DD0002604E3810E002668E204D07F0E22
:10043000005E64E363E007C10EF10B510E1B078FF2
:100440000B8F09510D03F4CF10F108510C03F4CFB9
:1004500003F0F3CF0FF10D03F3501027F4500F23E7
:10046000000E032209510C03F3501027F4500F2300
:10047000000E026A0322022207510D03F3500F27D8
:10048000F4500322000E022207510C03F3500326FE
:10049000F4500222000E016A012209510B03F350AD
:1004A0000F27F4500322000E0222012208510B03F1
:1004B000F3500326F4500222000E012207510B03D1
:1004C000F3500226F4500122002A01BE05D00F3756
:1004D0000336023601360006000E0FAF0AD0032A9B
:1004E00002220122015005E1025003E1035001E123
:1004F000002A0EBF018E0EAF019E04D0006A016A71
:10050000026A036A0001120001010A51D8B4A5D0A1
:10051000166F0E51D8B4A1D0165F05E37F0E1627D3
:10052000D8B09BD006D0810E165FD8A096D0D8B494
:1005300094D016C100F0016A026A036A156B0BC100
:1005400014F1148F0CC113F10DC112F1190E166FB5
:100550001151125F0DE2010E135F0AE2145F08E20F
:10056000155F06E2152B142B132B1151122728D0DF
:100570001051135F12E2010E145F0FE2155F0DE2DE
:10058000152B142B105113271151122719E3132B7C
:1005900017E1142B15E1152B13D00F518009145FAF
:1005A0000EE2010E155F0BE2152B0F518009142787
:1005B00010511327E9E3142BE7E1152BE5D703804E
:1005C000162F01D00BD0D8901237133714371537A8
:1005D000D8900336023601361737BAD717A106D09E
:1005E000D890013202320332173302D0000635E0D0
:1005F00017BF1ED0D8901237133714371537115143
:10060000125F07E2010E135F04E2145F02E2155F5E
:100610001AE31051135F05E2010E145F02E2155F49
:1006200012E30F518009145F03E2010E155F0BE323
:10063000032A09E1022A07E1012A05E1002A0DE067
:100640000132023203320BC116F10F51161B16AFE5
:1006500002D0018E06D0019E04D0006A016A026AAF
:10066000036A000112008E0E006E01010651005E49
:1006700007C102F008C101F0028E005209E0D890D3
:10068000025202E1015204E002320132002EF7D799
:1006900007AF05D0011E021E012AD8B4022A0001AC
:1006A00012008996898668EF03F00101086B0851F2
:1006B000070811E3D890063702E28C9001D08C80B5
:1006C000D890073702E28C9401D08C840001E9D7DE
:1006D0000101082BECD7000112008C928C8229EFCB
:1006E00004F08C968C862AEF04F0870E3216C751E0
:1006F0000FE0010A20E0030A33E0010A46E0070A9E
:1007000059E0010AD8B46AD0030AD8B47BD08ED09D
:10071000010EC76F328A23C006F132C007F1C5DF70
:100720001FC006F133C007F1C0DF1BC006F134C0A3
:1007300007F1BBDF8DD0020EC76F328824C006F1EF
:1007400032C007F1B2DF20C006F1010107690001E4
:10075000ACDF1CC006F1010107690001A6DF78D0FB
:10076000030EC76F328625C006F132C007F19DDF48
:1007700021C006F101010769000197DF1DC006F1E4
:1007800001010769000191DF63D0040EC76F328C4D
:1007900022C006F132C007F188DF1EC006F1010158
:1007A0000769000182DF1AC006F101010769000133
:1007B0007CDF4ED0050EC76F22C006F132C007F1B4
:1007C00074DF1EC006F10101076900016EDF1AC067
:1007D00006F101010769000168DF3AD0060EC76F14
:1007E00022C006F132C007F160DF1EC006F1010130
:1007F000076900015ADF1AC006F10101076900010B
:1008000054DF26D0070EC76F22C006F132C007F1B1
:100810004CDF1EC006F101010769000146DF1AC066
:1008200006F101010769000140DF12D0C76B22C049
:1008300006F132C007F139DF1EC006F10101076978
:10084000000133DF1AC006F10101076900012DDF45
:1008500044D747D7AFEF05F03F5202E1405206E0E0
:100860003F50D8B440063F0622D401D023DCBD530C
:1008700001E0BD07375201E037063C5202E13D522C
:100880000FE03C50D8B43D063C063C507D0807E1E3
:100890003D5205E11B8A38501D0801E0238A08D02B
:1008A0003D6AFA0E3C6E3E5201E03E061B9A239AC8
:1008B0000101066B076B000101DC0101066B076B90
:1008C000000122DC030E0101066F000143DC01C0C0
:1008D00047F0030E0101066F000168DC01C048F01B
:1008E000435005E0010A0EE0030A26E06BD04750B2
:1008F000481007E0010E436E85D401C045F04A6AF6
:10090000496A60D0475048100FE0010E4926000E9A
:100910004A224A50000807E2FF0A03E149509008C2
:1009200002E2020E436E07D0010E446E436A4A6A29
:10093000496A4C6A4B6A46D0475048103EE0010E67
:100940004B26000E4C224C5203E14B500A0834E275
:100950004550300A11E0010A14E0030A17E0700A5A
:100960001AE0030A1DE0020A20E0070A1FE0010A5C
:1009700022E0030A21E020D0010E446E620E456E93
:100980001BD0010E446E650E456E16D0010E446EEE
:10099000660E456E11D0010E446E680E456E0CD089
:1009A000010E446E610E456E07D006D0010E446EF6
:1009B000640E456E01D000D005D0436A4A6A496A88
:1009C0004C6A4B6A0101066B180E0B6F000178DC54
:1009D00001C006F10101063D01D01DD0190E0B6FBB
:1009E00000016EDC0150070BC96FC9530AE198DCA6
:1009F00003C0AAF002C0A9F001C0A8F000C0A7F08F
:100A000009D08EDC03C0AEF002C0ADF001C0ACF086
:100A100000C0ABF0010191C007F190C006F10001E8
:100A2000A0DC03C009F102C008F101C007F100C059
:100A300006F101010D6BC00E0C6F0A0E0B6F880ED4
:100A40000A6F0001A9DC04E3902BD8B4912B06D0E7
:100A5000916B906B8FC08DF08EC08CF091518D5D3D
:100A60000DE303E18C51905D09E238501A0803E070
:100A700038501B0803E18D84329402D08D94328467
:100A800095C007F194C006F16CDC03C009F102C007
:100A900008F101C007F100C006F101010D6BC00EA5
:100AA0000C6F0A0E0B6F880E0A6F000175DC04E3F1
:100AB000942BD8B4952B40D0956B946B0101076BA8
:100AC0008BC006F100014DDC03C009F102C008F142
:100AD00001C007F100C006F101010D6BC00E0C6FE3
:100AE0000A0E0B6F880E0A6F000193DC03C009F138
:100AF00002C008F101C007F100C006F103C00DF10A
:100B000002C00CF101C00BF100C00AF10101116B30
:100B1000106B200E0F6F820E0E6F0001F5DC03C00C
:100B200009F102C008F101C007F100C006F19BDD28
:100B300002C093F001C092F08B510A0803E18D824C
:100B400032920CD09551935D07E303E19251945D8D
:100B500003E28D82329202D08D923282C6D5F29417
:100B600030EF00F02020202042414F2043414F2011
:100B7000534F204C494555204D45205341590D0AAE
:100B80004E4741592F5448414E472F4E414D3A0D43
:100B90000A444F4E2056492053552044554E473A5B
:100BA0000D0A444941204348493A0D0A4E47554FE2
:100BB000492056414E2048414E483A0D0A4D4F4477
:100BC000454C3A4E49484F5048415741204F5335C4
:100BD0003300534552493A0D0A004348554F4E479A
:100BE000205452494E482053552044554E473A20F0
:100BF0000000557365720D0A000054484F492047A4
:100C000049414E20424154204441552025643A2513
:100C1000643A25640D0A00004E4849455420444F6B
:100C2000286F432920202020202054484F49204766
:100C300049414E0D0A002020202020202020202085
:100C400020202025643A25643A25640D0A00544882
:100C50004F49204749414E204B4554205448554365
:100C60002025643A25643A25640D0A004B4554203A
:100C7000515541204D45205341593A204441540D8E
:100C80000A00434855204B59204E47554F4920569E
:100C9000414E2048414E480D0A000D0A00002D2DFE
:100CA0002D2D2D2D2D2D2D2D2D2D2D2D2D2D2D2D74
:100CB0002D2D2D2D2D2D2D2D2D2D2D2D0D0A000001
:100CC000202020202020204D452053415920484FEE
:100CD000414E205448414E480D0A00000D0A0000C4
:100CE0004552524F5220434F44453A204525640D0A
:100CF0000A004B455420515541204D452053415940
:100D00003A204B484F4E47204441540D0A00434877
:100D100055204B59204E47554F492056414E2048AB
:100D2000414E480D0A000D0A00002D2D2D2D2D2DB0
:100D30002D2D2D2D2D2D2D2D2D2D2D2D2D2D2D2DE3
:100D40002D2D2D2D2D2D2D2D2D0D0A002020202077
:100D50004D4520534159204B484F4E4720484F4165
:100D60004E205448414E480D0A000D0A00005448D8
:100D70004F49204749414E204B4554205448554344
:100D80002025643A25643A25640D0A004B45542019
:100D9000515541204D45205341593A204B484F4E23
:100DA00047204441540D0A00434855204B59204EDA
:100DB00047554F492056414E2048414E480D0A00A4
:100DC0000D0A00002D2D2D2D2D2D2D2D2D2D2D2DF0
:100DD0002D2D2D2D2D2D2D2D2D2D2D2D2D2D2D2D43
:100DE0002D2D2D0D0A00204B4554205448554320ED
:100DF000424F49204E47554F492056414E204841C9
:100E00004E480D0A00000D0A0000EA6ADC0EE96E89
:100E1000EF500DE00A0E016E006A002EFED7012E83
:100E2000FBD75F0E006E002EFED7EF2EF3D7120019
:100E3000640EDC6FEADF8C988B900A0EDC6FE5DFC6
:100E40008B80640EDC6FE1DF8B90010EDC6FDDDFE9
:100E50008C88010EDC6FD9DF8C9A8B900A0EDC6FC8
:100E6000D4DF8B80640EDC6FD0DF8B90010EDC6FE3
:100E7000CCDF8C8A640EDC6FC8DF7BEF10F08990CA
:100E8000DC51700B006E0038DE6F0F0EDE17C8519C
:100E9000DE5D0EE0100EDF6FC950DFC0C9FFC73046
:100EA000FEE3DEC0C8F0C950C8C0C9FFC730FEE3CA
:100EB000DC510F0BDF6FC950DFC0C9FFC730FEE345
:100EC000C950DDC0C9FFC730FEE389801200800E23
:100ED000D8B2F91BFE6BFF6BF5C0FDF0F951FD1B9D
:100EE000F451D8B422D1FC6F006EF851D8B427D198
:100EF000FC5FD8B49ED04CE3F9C002F10101028F2F
:100F0000FAC001F1FBC000F10001FF6BD8900101B4
:100F10000233013300330001FF33FC2FF6D7FDAF5E
:100F200003D0FE8124D1FE91FC91FE89EA6AF70E7E
:100F3000E96E3AD1FE99FDBF0CD0FCA11AD0010197
:100F40000233013300330001FF33002AD8B408D143
:100F500010D0010102BF10D0D8900001FF3701016D
:100F6000003701370237002E02D00001F9D0F2D746
:100F70000001FE8D84D0FE9DF5C0FDF00001F5AFAF
:100F800003D00101028FE4D00101029FE1D00001F2
:100F9000F8C0FCF0F8C000F0F451FC5FF5C002F1BD
:100FA0000101028FF6C001F1F7C000F10001FF6BF3
:100FB000D89001010233013300330001FF33FC2FCD
:100FC000F6D7FDAF03D0FE83D2D0FE93FC91FE8B0B
:100FD000EA6AFB0EE96EE8D0FE9BFDBF0CD0FCA1D7
:100FE0001AD001010233013300330001FF33002A1C
:100FF000D8B4B6D010D0010102BF10D0D8900001F3
:10100000FF370101003701370237002E02D00001FF
:10101000A7D0F2D70001FE8F32D0FE9FF9C0FDF0BD
:101020000001F9AF03D00101028F92D00101029FAC
:101030008FD0F9C002F10101028FFAC001F1FBC0AB
:1010400000F10001FDAF06D00101029F0001FE8505
:101050008ED0FE95FF6BFC91EA6AF70EE96EA4D084
:10106000FDBF2DD0F5C0FDF0FCA109D00101023378
:10107000013300330001FF33002AD8B471D0FFAF31
:1010800019D00101002BD8B402D0000113D0012BDC
:10109000D8B402D000010ED0022BD8B402D0000187
:1010A00009D0023301330033002AD8A402D0000152
:1010B00057D00001FEBD5FD7FEBFAFD72ED0800E48
:1010C0000101021B02AF06D0000151D0F9C0FDF0B2
:1010D00014D00101F5C0FDF00253D8B402D00001D4
:1010E0000CD00153D8B402D0000107D00053D8B4BB
:1010F00002D0000102D0006A2BD0010102AF02D061
:1011000000010BD0D8900001FF37010100370137F3
:101110000237002EF3D7000123D0FDAF03D0010129
:10112000028F16D00101029F13D0F8C000F0F9C061
:1011300002F1FAC001F1FBC000F1010109D0F4C0D5
:1011400000F0F5C002F1F6C001F1F7C000F10101B5
:1011500002C101F001C102F000C103F04CD0000156
:10116000006A016A026A036A010145D00001FF6B4F
:101170000101001F011F021F0001FF1FFF2B0DE1D6
:101180000101002BD8B402D0000107D0012BD8B444
:1011900002D0000102D0022B0001FEB1C4D6FEB382
:1011A00014D7FEB556D792D7EF500101002708E3B8
:1011B000012B06E1022BD8A403D00001FC81010120
:1011C000ED52EF50012706E3022BD8A403D0000113
:1011D000FC810101ED52EF50EFBE01D0800A0227E1
:1011E000D8A002D00001FC810001FEB9A3D6FEBB4D
:1011F000F3D636D7010100011200D190C50ED56E8D
:10120000CD6A000ECA6E000ECB6EB16A070EB46EC8
:101210009250926E1A0E006E002EFED70000B4504F
:10122000A19CB56A9698F28AC00EF21229EF11F0CD
:10123000080E016E0A0E006E002EFED78998929855
:101240000B0E006E002EFED7E137899AD8B0928A35
:10125000D8A0929A928880A8FED7012EEBD70A0ECA
:10126000006E002EFED7899892980000928A0B0E8D
:10127000006E002EFED70B0E006E002EFED7928859
:1012800080A8FED7016A0B0E006E002EFED780BA32
:10129000018089989298899A929A1200F29CF29E03
:1012A000F2BEFDD7928A0A0E006E002EFED79288FB
:1012B0000B0E006E002EFED7899A929A0A0E006ECF
:1012C000002EFED789989298D00EE16FB1DFDEC074
:1012D000E1F0AEDFDFC0E1F0ABDF929A0000928870
:1012E00080A8FED70A0E006E002EFED700D00000A8
:1012F000928A0A0E006E002EFED7928A0A0E006EA7
:10130000002EFED792880B0E006E002EFED7899A13
:10131000929A0A0E006E002EFED789989298D00EEF
:10132000E16F86DF0150E09101B0E081E0A11CD0C7
:10133000928A0A0E006E002EFED792880B0E006E67
:10134000002EFED780A8FED7899A929A0A0E006EC8
:10135000002EFED789989298D00EE16F69DF015078
:10136000E09101B0E081E2D7C00EF21212004D50C0
:101370007F0BDC6FDE6BDF6F91DF2BEF11F0080E60
:10138000E16F00C0E2F0928A0B0E006E002EFED7D5
:10139000928880A8FED780BAD88080AAD8900136DB
:1013A0000A0E006E002EFED792988998E12FEBD797
:1013B000928A0B0E006E002EFED7899AE251D8A4B5
:1013C000929A0000928880A8FED70A0E006E002E26
:1013D000FED7899892980B0E006E002EFED7899A40
:1013E000929A2AEF0AF0F29CF29EF2BEFDD7928A00
:1013F0000A0E006E002EFED792880B0E006E002E95
:10140000FED780A8FED7899A929A0A0E006E002E07
:10141000FED789989298D00EE16F0ADFDEC0E1F026
:1014200007DF928A0A0E006E002EFED792880B0EFE
:10143000006E002EFED780A8FED7899A929A0A0ED7
:10144000006E002EFED789989298D10EE16FF0DEE3
:10145000006A95D701C0DFF0929A0000928880A8B8
:10146000FED70A0E006E002EFED700D00000928A32
:101470000A0E006E002EFED7C00EF212DFC001F081
:10148000120034C0DDF0DC5100081CE2DC5107081A
:1014900019E3FE0EDD13010EDC5DF90F10E2070FFC
:1014A00066EF0AF0DD930BD0DD9509D0DD9707D00C
:1014B000DD9905D0DD9B03D0DD9D01D0DD9FDDC032
:1014C00034F002D0FE0E3412BAEF0AF0E824F76AC4
:1014D000F736E70FF66E140EF7220A00F550FA6E93
:1014E0000800F550F96EA414A814AC14B014B41488
:1014F000B814BC14E751000A13E0010A14E0030A0F
:1015000015E0010A16E0070A17E0010A18E0030ACD
:1015100019E0010A1AE00F0A1BE0010A1CE01ED0C4
:101520005F0E016E1DD0090E016E1AD09E0E016E67
:1015300017D09B0E016E14D0C90E016E11D0D30EC0
:10154000016E0ED0D70E016E0BD0190E016E08D0B1
:10155000DF0E016E05D0DB0E016E02D0000E016EB3
:101560001200030EDE6F3FDF0150070B506E50C0BC
:10157000DCF087D7020EDE6F36DF01C04FF04F3848
:10158000DC6F0F0EDC17DCC0E7F0B4DF01C01AF02F
:101590004F500F0BDC6FE76FADDF01C01BF0010E8A
:1015A000DE6F21DF01C04EF04E38DC6F0F0EDC170E
:1015B000DCC0E7F09FDF01C01CF04E500F0BDC6F6A
:1015C000E76F98DF01C01DF0120034902FEF11F08B
:1015D000E051E203F3CF01F0F4CF00F0E303F35066
:1015E0000026E151E203F3500020026E1200080EC3
:1015F000DE6FF9DE01C03AF01D0EDE6FF4DE01C0D1
:101600005EF05E50070801E25E6A0A0EDE6FEBDEF6
:1016100001C05CF00B0EDE6FE6DE01C05DF05C50D9
:10162000170815E35D503A0812E3DF6B5CC0DEF08B
:10163000DFC0E1F05CC0E0F0E36B3C0EE26FC8DFBE
:101640005D500124566E000E0220576E02D0576A7C
:10165000566AF2CFDEF0F29E360EA96EA69CA69ECA
:10166000A680A850DEBFF28E8B6F8B510A0803E371
:101670008B51040802E30A0E8B6FF2CFDEF0F29E6C
:10168000070EA96EA69CA69EA680A850DEBFF28E6D
:10169000DC6FF2CFDEF0F29E080EA96EA69CA69E2D
:1016A000A680A850DEBFF28EDD6FDCC0DEF0DE6B00
:1016B000DD51DE25966F000EDC21976F97512608CD
:1016C00007E2FF0A03E19651100802E2976B966B5E
:1016D000F2CFDEF0F29E1B0EA96EA69CA69EA680FF
:1016E000A850DEBFF28EDC6FF2CFDEF0F29E1C0E51
:1016F000A96EA69CA69EA680A850DEBFF28EDD6FC6
:10170000DCC0DEF0DE6BDD51DE25016E000EDC217B
:1017100001C0A5F0A66FA6BF08D0A6510A0805E231
:10172000FF0A0CE1A551B80809E3A6AF09D0A651FC
:10173000F40806E303E1A551470802E3A66BA56B95
:10174000F2CFDEF0F29E500EA96EA69CA69EA68059
:10175000A850DEBFF28EBF6FBF5304E0BF2D01D093
:1017600001D0BF6B37EF11F066504E081DE303E167
:1017700065501F0819E3F2CFDEF0F29E300EA96E1D
:10178000A69CA69EA680A850DEBFF28EDC6FF2CF8C
:10179000DEF0F29E310EA96EA69CA69EA680A850F1
:1017A000DEBFF28EDD6F18D0F2CFDEF0F29E400E7B
:1017B000A96EA69CA69EA680A850DEBFF28EDC6F06
:1017C000F2CFDEF0F29E410EA96EA69CA69EA680E8
:1017D000A850DEBFF28EDD6FDCC0DEF0DE6BDD51C7
:1017E000DE25836F000EDC21846F845303E1835177
:1017F00064080EE266504E0808E303E165501F08D6
:1018000004E3846B3C0E836F03D0846B410E836FC3
:1018100066504E081DE303E165501F0819E3F2CF3F
:10182000DEF0F29E320EA96EA69CA69EA680A8505F
:10183000DEBFF28EDC6FF2CFDEF0F29E330EA96EC9
:10184000A69CA69EA680A850DEBFF28EDD6F18D0A3
:10185000F2CFDEF0F29E420EA96EA69CA69EA68056
:10186000A850DEBFF28EDC6FF2CFDEF0F29E430EA8
:10187000A96EA69CA69EA680A850DEBFF28EDD6F44
:10188000DCC0DEF0DE6BDD51DE25856F000EDC2175
:10189000866F865303E1855164080EE266504E0858
:1018A00008E303E165501F0804E3866B370E856F7C
:1018B00003D0866B410E856F66504E081DE303E131
:1018C00065501F0819E3F2CFDEF0F29E340EA96EC8
:1018D000A69CA69EA680A850DEBFF28EDC6FF2CF3B
:1018E000DEF0F29E350EA96EA69CA69EA680A8509C
:1018F000DEBFF28EDD6F18D0F2CFDEF0F29E440E26
:10190000A96EA69CA69EA680A850DEBFF28EDC6FB4
:10191000F2CFDEF0F29E450EA96EA69CA69EA68092
:10192000A850DEBFF28EDD6FDCC0DEF0DE6BDD5175
:10193000DE25876F000EDC21886F885303E1875115
:1019400064080EE266504E0808E303E165501F0884
:1019500004E3886B1C0E876F03D0886B260E876F9D
:101960001200196AF2BE198EF29E740E0101066F02
:101970000001AAEC00F019BEF28E01C0DCF0DC6BB5
:10198000196AF2BE198EF29E740E0101066FDCC058
:1019900007F100015EEC00F019BEF28E196AF2BE8A
:1019A000198EF29E740E0101066F0001D6EC00F054
:1019B00019BEF28E01C0DCF0C80EDC17196AF2BE47
:1019C000198EF29E740E0101066FDCC007F1000152
:1019D00084EC00F019BEF28E1200196AF2BE198E64
:1019E000F29E740E0101066F0001AAEC00F019BE10
:1019F000F28E01C0DCF0DC81196AF2BE198EF29E13
:101A0000740E0101066FDCC007F100015EEC00F00E
:101A100019BEF28E1200010E3A5CF60FD8B07AD0E1
:101A20000A0F8BEF0DF02E0E536EE00E526E320E3B
:101A3000556EC80E546E596A5A0E586E6BD0320EDF
:101A4000536EC80E526E360E556EB00E546E596AF5
:101A5000550E586E5FD0360E536EB00E526E3A0E63
:101A6000556E980E546E596A500E586E53D03A0EF9
:101A7000536E980E526E3E0E556E800E546E596A1D
:101A8000460E586E47D03E0E536E800E526E420E7A
:101A9000556E680E546E596A3C0E586E3BD0420E1D
:101AA000536E680E526E460E556E500E546E596A45
:101AB000320E586E2FD0460E536E500E526E4A0E96
:101AC000556E380E546E596A2D0E586E23D04A0E3C
:101AD000536E380E526E4E0E556E200E546E596A6D
:101AE000280E586E17D04E0E536E200E526E520EA8
:101AF000556E080E546E596A230E586E0BD0550E53
:101B0000536EF00E526E590E556ED80E546E596AC1
:101B10001E0E586E1200E824F76AF736310FF66E83
:101B20001B0EF7220A00F550FA6E0800F550F96E08
:101B3000261A3E1A561A6E1A861A9E1AB61ACE1A05
:101B4000E61AFE1A5B6A010E5A6E3850010A03E06B
:101B5000070A01E011D005DF40DF010E3A6E5BDFBE
:101B600053C066F052C065F055C068F054C067F0CD
:101B700059C082F058C081F01200196AF2BE198E65
:101B8000F29E740E0101066F0001AAEC00F019BE6E
:101B9000F28E01C0DCF0DC83196AF2BE198EF29E6F
:101BA000740E0101066FDCC007F100015EEC00F06D
:101BB00019BEF28E12005B6A020E5A6E3850010A8C
:101BC00003E0070A01E011D0CCDED7DF020E3A6E47
:101BD00022DF53C066F052C065F055C068F054C0B3
:101BE00067F059C082F058C081F01200196AF2BE45
:101BF000198EF29E740E0101066F0001AAEC00F02E
:101C000019BEF28E01C0DCF0DC85196AF2BE198EB5
:101C1000F29E740E0101066FDCC007F100015EEC5C
:101C200000F019BEF28E12005B6A030E5A6E385035
:101C3000010A03E0070A01E011D093DED7DF030EAB
:101C40003A6EE9DE53C066F052C065F055C068F0E8
:101C500054C067F059C082F058C081F01200196A70
:101C6000F2BE198EF29E740E0101066F0001AAECFD
:101C700000F019BEF28E01C0DCF0DC87196AF2BEFA
:101C8000198EF29E740E0101066FDCC007F100018F
:101C90005EEC00F019BEF28E12005B6A040E5A6E02
:101CA0003850010A03E0070A01E011D05ADED7DFFD
:101CB000040E3A6EB0DE53C066F052C065F055C0F7
:101CC00068F054C067F059C082F058C081F012002B
:101CD000196AF2BE198EF29E740E0101066F0001A0
:101CE000AAEC00F019BEF28E01C0DCF0DC89196AA2
:101CF000F2BE198EF29E740E0101066FDCC007F170
:101D000000015EEC00F019BEF28E12005B6A050E57
:101D10005A6E3850010A03E0070A01E011D021DEB3
:101D2000D7DF050E3A6E77DE53C066F052C065F01D
:101D300055C068F054C067F059C082F058C081F0B7
:101D40001200196AF2BE198EF29E740E0101066F1E
:101D50000001AAEC00F019BEF28E01C0DCF0DC8BB1
:101D6000196AF2BE198EF29E740E0101066FDCC074
:101D700007F100015EEC00F019BEF28E12005B6A02
:101D8000060E5A6E3850010A03E0070A01E011D02E
:101D9000E8DDD7DF060E3A6E3EDE53C066F052C075
:101DA00065F055C068F054C067F059C082F058C063
:101DB00081F01200196AF2BE198EF29E740E0101B2
:101DC000066F0001AAEC00F019BEF28E01C0DCF033
:101DD000DC8D196AF2BE198EF29E740E0101066F37
:101DE000DCC007F100015EEC00F019BEF28E1200BB
:101DF0005B6A070E5A6E3850010A03E0070A01E0D9
:101E000011D0AFDDD7DF070E3A6E05DE53C066F0A6
:101E100052C065F055C068F054C067F059C082F0F8
:101E200058C081F01200196AF2BE198EF29E740E2B
:101E30000101066F0001AAEC00F019BEF28E01C08C
:101E4000DCF0DC8F196AF2BE198EF29E740E01016D
:101E5000066FDCC007F100015EEC00F019BEF28EE7
:101E600012005B6A080E5A6E3850010A03E0070A36
:101E700001E011D076DDD7DF080E3A6ECCDD53C01D
:101E800066F052C065F055C068F054C067F059C0A4
:101E900082F058C081F01200196AF2BE198EF29ECB
:101EA000740E0101066F0001D6EC00F019BEF28E2F
:101EB00001C0DCF0DC81196AF2BE198EF29E740E4C
:101EC0000101066FDCC007F1000184EC00F019BECF
:101ED000F28E12005B6A090E5A6E3850010A03E056
:101EE000070A01E011D03DDDD7DF090E3A6E93DD20
:101EF00053C066F052C065F055C068F054C067F03A
:101F000059C082F058C081F01200196AF2BE198ED1
:101F1000F29E740E0101066F0001D6EC00F019BEAE
:101F2000F28E01C0DCF0DC85196AF2BE198EF29ED9
:101F3000740E0101066FDCC007F1000184EC00F0B3
:101F400019BEF28E12005B6A5A6A3850010A03E029
:101F5000070A01E011D005DDD8DF0A0E3A6E5BDD1D
:101F600053C066F052C065F055C068F054C067F0C9
:101F700059C082F058C081F01200196AF2BE198E61
:101F8000F29E740E0101066F0001D6EC00F019BE3E
:101F9000F28E01C0DCF0DC8B196AF2BE198EF29E63
:101FA000740E0101066FDCC007F1000184EC00F043
:101FB00019BEF28E1200F2CFDEF0F29E550EA96E1F
:101FC000A69CA69EA680A850DEBFF28E5F6EF2CFC2
:101FD000DEF0F29E560EA96EA69CA69EA680A85084
:101FE000DEBFF28E606EDF6B5FC0DEF0DFC0E1F05F
:101FF0005FC0E0F0E36B3C0EE26FE8EC0AF060508B
:102000000124586E000E0220596EF2CFDEF0F29ECF
:10201000510EA96EA69CA69EA680A850DEBFF28E89
:10202000DC6FF2CFDEF0F29E520EA96EA69CA69E49
:10203000A680A850DEBFF28EDD6FDCC0DEF0DE6B66
:10204000DD51DE25526E000EDC21536E53506008C8
:1020500009E2FF0A03E15250A80804E23A0E536E67
:10206000980E526EF2CFDEF0F29E530EA96EA69C31
:10207000A69EA680A850DEBFF28EDC6FF2CFDEF007
:10208000F29E540EA96EA69CA69EA680A850DEBF06
:10209000F28EDD6FDCC0DEF0DE6BDD51DE25546ECE
:1020A000000EDC21556E5550780809E2FF0A03E165
:1020B0005450180804E2790E556E180E546E120032
:1020C000700ED36EC00E9B6ED350060E926E000E35
:1020D000936E900E946E400E956E96909692969496
:1020E000969689808C888C8AC69A210EC66E400E80
:1020F000C76E18EF07F0196AF2BE198EF29E200E15
:102100000101066F280E076F00015EEC00F019BE9A
:10211000F28E196AF2BE198EF29E200E0101066F30
:10212000280E076F000184EC00F019BEF28E196AC8
:10213000F2BE198EF29E720E0101066F076B00014E
:102140005EEC00F019BEF28E196AF2BE198EF29E94
:10215000720E0101066FC80E076F000184EC00F0DB
:1021600019BEF28E196AF2BE198EF29E930E01010B
:10217000066F076B00015EEC00F019BEF28E196A63
:10218000F2BE198EF29E930E0101066F076B0001DD
:1021900084EC00F019BEF28E446A436A4A6A496AC6
:1021A0004C6A4B6A45681F0EDC6F880EDD6F3FEC92
:1021B00007F0200EDC6F230EDD6F3FEC07F0210EE1
:1021C000DC6F3E0EDD6F3FEC07F0220EDC6F2B0E56
:1021D000DD6F3FEC07F0230EDC6F300EDD6F3FEC60
:1021E00007F09E6B9D6B9C6B9B6B9A6B996B100EB3
:1021F000986FBA6BB96BB86BB76BCD0EB66FCC0E70
:10220000B56F4C0EB46F7E0EB36FD882F76BF66B62
:10221000F56B7F0EF46FB6C0FBF0B5C0FAF0B4C03A
:10222000F9F0B3C0F8F067EC07F003C0B2F002C0F9
:10223000B1F001C0B0F000C0AFF0969096929694C5
:1022400096968D9032808D9232828D943284FDEFFD
:1022500008F0B7EF09F0B1EC0AF0E5EF0AF0010E73
:10226000386E38C039F05AEC00F0F7EF0AF0B4ECF1
:102270000BF03A50010A13E0030A13E0010A13E0DD
:10228000070A13E0010A13E0030A13E0010A13E04E
:102290000F0A13E0010A13E0030A13E014D052DC22
:1022A00022D089DC20D0C0DC1ED0F7DC1CD02EDD93
:1022B0001AD065DD18D09CDD16D0D3DD14D00ADE2F
:1022C00012D041DE10D059DE76DE0B0E3A6E59C0C8
:1022D00082F058C081F053C066F052C065F055C01E
:1022E00068F054C067F04CEF34F0DDC040F0DCC063
:1022F0003FF01200016A026A006A036AE85102E1D3
:10230000E75118E0100EE96FD890E537E637003650
:102310000336E851035C02E1E751005C07E3E75153
:10232000005ED8A00306E851035ED880013602366D
:10233000E92FEAD71200070E385CF20FD8B0BED1F1
:102340000E0F5FEF13F06650090820E303E16550BC
:10235000C4081CE366C0E1F065C0E0F0E36B0A0E60
:10236000E26FE8EC0AF002C0DDF001C0DCF0E16BE6
:10237000640EE06F5BC0E3F05AC0E2F0E8EC0AF0F4
:102380000150DC25656E0250DD21666E66C053F09B
:1023900065C052F093D168500C0820E303E1675008
:1023A0001C081CE368C0E1F067C0E0F0E36B0A0EB4
:1023B000E26FE8EC0AF002C0DDF001C0DCF0E16B96
:1023C000640EE06F5BC0E3F05AC0E2F0E8EC0AF0A4
:1023D0000150DC25676E0250DD21686E68C055F043
:1023E00067C054F06BD1BE2D09D05C50170805E3CF
:1023F0005C500A0DF3505A245C6E08D05D503B08C7
:1024000005E35D500A0DF3505A245D6EDD6B5CC030
:10241000DCF0DDC0E1F05CC0E0F0E36B3C0EE26FAD
:10242000E8EC0AF05D500124566E000E0220576E53
:1024300045D1CA2D73D0BE534FE182534DE1815136
:102440003B084AE382C0E6F081C0E5F0E86B3C0E51
:10245000E76F50DF00C0DCF003C0DDF0DD533BE18F
:10246000DC51630838E382C0E6F081C0E5F0E86B38
:102470003C0EE76F3FDF02C0DDF001C0DCF002C0C0
:10248000E1F001C0E0F0E36B3C0EE26FE8EC0AF033
:1024900002C0DDF001C0DCF082C0E6F081C0E5F0F2
:1024A000E86B3C0EE76F26DF00C0DEF003C0DFF014
:1024B00003C0E1F000C0E0F0E36B0A0EE26FE8EC6D
:1024C0000AF00150DC270250DD235A50DC25816FD1
:1024D0005B50DD21826F0FD082C0E1F081C0E0F05F
:1024E000E36B0A0EE26FE8EC0AF05A500124816FA8
:1024F0005B500220826F8251170809E303E181518A
:102500006F0805E382C059F081C058F006D0826B95
:10251000816B82C059F081C058F08ED0BE2D31D071
:10252000825102082DE303E18151570829E382C05B
:10253000E6F081C0E5F0E86B3C0EE76FDBDE02C041
:10254000DDF001C0DCF002C0E1F001C0E0F0020EFD
:10255000E36F580EE26FE8EC0AF002C0DDF001C054
:10256000DCF0E16B3C0EE06F5BC0E3F05AC0E2F0E0
:10257000E8EC0AF00150DC25816F0250DD21826F0A
:1025800049D082C0E6F081C0E5F0E86B3C0EE76F11
:10259000B1DE00C0DCF003C0DDF0DD533BE1DC5117
:1025A000090838E382C0E6F081C0E5F0E86B3C0E34
:1025B000E76FA0DE02C0DDF001C0DCF002C0E1F098
:1025C00001C0E0F0E36B3C0EE26FE8EC0AF002C001
:1025D000DDF001C0DCF082C0E6F081C0E5F0E86B20
:1025E0003C0EE76F87DE00C0DEF003C0DFF003C003
:1025F000E1F000C0E0F0E36B0A0EE26FE8EC0AF0F5
:102600000150DC270250DD235A50DC25816F5B50DE
:10261000DD21826F8251170809E303E181516F08C0
:1026200005E382C059F081C058F006D0826B816BFF
:1026300082C059F081C058F041D06250270813E39E
:1026400003E161500F080FE362C0E1F061C0E0F008
:10265000E36B0A0EE26FE8EC0AF05A500124616E57
:102660005B500220626E6250260807E2FF0A03E117
:1026700061500F0802E2626A616A20D09751270810
:1026800013E303E196510F080FE397C0E1F096C002
:10269000E0F0E36B0A0EE26FE8EC0AF05A50012416
:1026A000966F5B500220976F9751260807E2FF0A4A
:1026B00003E196510F0802E2976B966B1200E82433
:1026C000F76AF736D90FF66E260EF7220A00F55094
:1026D000FA6E0800F550F96E46239623BC26E623D1
:1026E0003224BC26BC26BC26BC26BC263A26BC26E8
:1026F000BC267C26196AF2BE198EF29E740E010168
:10270000066F0001D6EC00F019BEF28E01C0DEF0BB
:10271000DE83196AF2BE198EF29E740E0101066FF5
:10272000DEC007F1000184EC00F019BEF28E120049
:10273000196AF2BE198EF29E740E0101066F000135
:10274000D6EC00F019BEF28E01C0DEF0DE93196AFD
:10275000F2BE198EF29E740E0101066FDEC007F103
:10276000000184EC00F019BEF28E12000A0E385CF3
:10277000FA0F11E2060FCDEF13F0BE5304E1010E84
:10278000BE6FB8DF08D0BE6B815304E1825302E113
:10279000010ECA6FCDDFC3EF1DF0E824F76AF736EC
:1027A000B50FF66E270EF7220A00F550FA6E0800F4
:1027B000F550F96E7A277A27962796277A277A276F
:1027C000070E385CF20F2DE20E0F13EF14F0666A5D
:1027D000656A66C053F065C052F023D0686A676AC4
:1027E00068C055F067C054F01CD0806B7F6A5C6A8B
:1027F0005D6A80C057F07FC056F0010EBE6F7ADF71
:1028000010D0826B816B82C059F081C058F0010EEC
:10281000BE6FCA6B6FDF05D0626A616A02D0976BC8
:10282000966BC3EF1DF0E824F76AF736410FF66E9A
:10283000280EF7220A00F550FA6E0800F550F96EDE
:10284000CE27DC272228EA2702282228222822282D
:10285000222822281828222822281E28196AF2BE97
:10286000198EF29E740E0101066F0001D6EC00F085
:1028700019BEF28E01C0DCF0DC89196AF2BE198E35
:10288000F29E740E0101066FDCC007F1000184ECBA
:1028900000F019BEF28E7CEF14F0080EDE6F3AC025
:1028A000DFF04EEC09F07DEF14F0196AF2BE198EDC
:1028B000F29E740E0101066F0001D6EC00F019BE05
:1028C000F28E01C0DCF0DC99196AF2BE198EF29E1C
:1028D000740E0101066FDCC007F1000184EC00F00A
:1028E00019BEF28E93EF14F03850180819E3190E40
:1028F000386E38C039F0B2D7D0D7B4EC0BF080C006
:102900008AF07FC089F0010EDE6FF3EC09F001C0A0
:1029100051F0010EC06FC16FC26FC36FC56B60D045
:10292000010E386EC2D7080EDE6FF3EC09F001C05D
:102930003AF0C06BC16BC26BC36BC56B392C01D055
:1029400009D039501D0806E039501E0803E0010E79
:10295000C46F396E3A50010A13E0030A14E0010A09
:1029600015E0070A16E0010A17E0030A18E0010A59
:1029700019E00F0A1AE0010A1BE0030A1CE01ED04E
:10298000A2EC0DF02DD0DBEC0DF02AD014EC0EF003
:1029900027D04DEC0EF024D086EC0EF021D0BFEC09
:1029A0000EF01ED0F8EC0EF01BD031EC0FF018D06A
:1029B0006AEC0FF015D0A3EC0FF012D0BDEC0FF0C5
:1029C00057C080F056C07FF059C082F058C081F0E7
:1029D00053C066F052C065F055C068F054C067F04F
:1029E000C3EF1DF057C0E6F056C0E5F0E86B3C0EB3
:1029F000E76F80DC01C05CF057C0E6F056C0E5F040
:102A0000E86B3C0EE76F76DC00C05DF00A0EDE6F0F
:102A10005CC0DFF04EEC09F00B0EDE6F5DC0DFF046
:102A20004EEC09F05AEF16F05350030804E30BE1A3
:102A30005250E70808E25350600809E2FF0A03E138
:102A40005250A80804E23A0E536E980E526E55503A
:102A5000030804E30BE15450E70808E255507808F6
:102A600009E2FF0A03E15450180804E2790E556E9A
:102A7000180E546E76EF16F053C0DCF052C0DDF045
:102A8000F250006EF29E510EA96EDCC0A8FFA69C0B
:102A9000A69EA6840F01550EA76EAA0EA76EA6824B
:102AA000A6B2FED7A6940050F212F2CF00F0F29E2A
:102AB000520EA96EDDC0A8FFA69CA69EA684550E48
:102AC000A76EAA0EA76EA682A6B2FED7A694005045
:102AD000F212000177EF16F055C0DCF054C0DDF0C3
:102AE000F250006EF29E530EA96EDCC0A8FFA69CA9
:102AF000A69EA6840F01550EA76EAA0EA76EA682EB
:102B0000A6B2FED7A6940050F212F2CF00F0F29EC9
:102B1000540EA96EDDC0A8FFA69CA69EA684550EE5
:102B2000A76EAA0EA76EA682A6B2FED7A6940050E4
:102B3000F212000178EF16F059C0E6F058C0E5F047
:102B4000E86B3C0EE76F7AEC11F001C05FF059C002
:102B5000E6F058C0E5F0E86B3C0EE76F7AEC11F058
:102B600000C060F0F250006EF29E550EA96E5FC07C
:102B7000A8FFA69CA69EA6840F01A76EAA0EA76E0C
:102B8000A682A6B2FED7A6940050F212F2CF00F0B1
:102B9000F29E560EA96E60C0A8FFA69CA69EA684B3
:102BA000550EA76EAA0EA76EA682A6B2FED7A69451
:102BB0000050F21200018BEF16F097C0DCF096C0C7
:102BC000DDF0F250006EF29E070EA96EDCC0A8FF89
:102BD000A69CA69EA6840F01550EA76EAA0EA76EF0
:102BE000A682A6B2FED7A6940050F212F2CF00F051
:102BF000F29E080EA96EDDC0A8FFA69CA69EA68424
:102C0000550EA76EAA0EA76EA682A6B2FED7A694F0
:102C10000050F212000189EF16F0382C01D005D0D7
:102C20003850020810E13B2C0ED0DBEC0FF053C003
:102C300066F052C065F055C068F054C067F059C0E6
:102C400082F058C081F0010E385CEC0FD8B063D030
:102C5000140F8DEF16F0B1EC0CF0BDEC0FF00B0E75
:102C60003A6E59D03B50010A05E0030A0CE0010A14
:102C70000DE00ED00B0E3A6EB1EC0CF0BDEC0FF087
:102C8000070E386E05D0030E386E02D0090E386E6E
:102C900042D0040E386E3FD0050E386E3CD00A0E7E
:102CA000386E010EBE6F26DD36D042DD020E386E64
:102CB00032D098D6020E386E2ED059C0E6F058C0E9
:102CC000E5F0E86B3C0EE76F7AEC11F001C05FF0C5
:102CD00059C0E6F058C0E5F0E86B3C0EE76F7AECBF
:102CE00011F000C060F0020E386E9ED6C5D6F4D644
:102CF00023D711D06350615C08E16450625C05E148
:102D0000140E386E626A616A02D0626A616A03D028
:102D100054D7010E386EC3EF1DF0E824F76AF7367A
:102D2000350FF66E2D0EF7220A00F550FA6E0800E8
:102D3000F550F96E562C642C922C982CAA2C162D3A
:102D4000162D162D9E2CB22CBA2C162D162D162DA6
:102D5000162D162DF42CF42C162D102DE66B46C0D6
:102D6000E5F0270EE86F100EE76F7AEC11F000C067
:102D700046F0DE51040DF350E26BE16F1A0EE125CF
:102D8000016E000EE221036E01C0E3F0E46FE76B19
:102D90007AEC0AF0E4C0EAFFE3C0E9FF01C0EFFF0C
:102DA000DE51040DF350E26BE16F010EE125016E7F
:102DB000000EE221036E01501A0F016E000E032275
:102DC00001C0E1F003C0E2F0E0C0E6F0DFC0E5F0F2
:102DD000E86B640EE76F7AEC11F002C0E4F001C01A
:102DE000E3F001C0E7F07AEC0AF0E2C0EAFFE1C0EC
:102DF000E9FF01C0EFFFDE51040DF350E26BE16F1C
:102E0000020EE125016E000EE221036E01501A0F41
:102E1000016E000E032201C0E1F003C0E2F0E0C049
:102E2000E6F0DFC0E5F0E86B640EE76F7AEC11F0D6
:102E300000C0E3F003C0E4F003C0E6F000C0E5F03A
:102E4000E86B0A0EE76F7AEC11F002C0E4F001C003
:102E5000E3F001C0E7F07AEC0AF0E2C0EAFFE1C07B
:102E6000E9FF01C0EFFFDE51040DF350E26BE16FAB
:102E7000030EE125016E000EE221036E01501A0FD0
:102E8000016E000E032201C0E1F003C0E2F0E0C0D9
:102E9000E6F0DFC0E5F0E86B0A0EE76F7AEC11F0C0
:102EA00000C0E3F003C0E4F000C0E7F07AEC0AF001
:102EB000E2C0EAFFE1C0E9FF01C0EFFF120084C0F9
:102EC000DEF083C0DFF066504E082FE303E165506B
:102ED0001F082BE3F250006EF29E300EA96EDEC08A
:102EE000A8FFA69CA69EA6840F01550EA76EAA0E4B
:102EF000A76EA682A6B2FED7A6940050F212F2CF19
:102F000000F0F29E310EA96EDFC0A8FFA69CA69E1F
:102F1000A684550EA76EAA0EA76EA682A6B2FED7ED
:102F2000A6940050F2122AD00001F250006EF29ED8
:102F3000400EA96EDEC0A8FFA69CA69EA6840F0127
:102F4000550EA76EAA0EA76EA682A6B2FED7A694AD
:102F50000050F212F2CF00F0F29E410EA96EDFC0D7
:102F6000A8FFA69CA69EA684550EA76EAA0EA76EC5
:102F7000A682A6B2FED7A6940050F212000112005B
:102F800086C0DEF085C0DFF066504E082FE303E117
:102F900065501F082BE3F250006EF29E320EA96EB0
:102FA000DEC0A8FFA69CA69EA6840F01550EA76EA4
:102FB000AA0EA76EA682A6B2FED7A6940050F21261
:102FC000F2CF00F0F29E330EA96EDFC0A8FFA69CE0
:102FD000A69EA684550EA76EAA0EA76EA682A6B2BE
:102FE000FED7A6940050F2122AD00001F250006ED3
:102FF000F29E420EA96EDEC0A8FFA69CA69EA684E5
:103000000F01550EA76EAA0EA76EA682A6B2FED716
:10301000A6940050F212F2CF00F0F29E430EA96E79
:10302000DFC0A8FFA69CA69EA684550EA76EAA0E7A
:10303000A76EA682A6B2FED7A6940050F212000197
:10304000120088C0DEF087C0DFF066504E082FE324
:1030500003E165501F082BE3F250006EF29E340E20
:10306000A96EDEC0A8FFA69CA69EA6840F01550EE1
:10307000A76EAA0EA76EA682A6B2FED7A69400508F
:10308000F212F2CF00F0F29E350EA96EDFC0A8FF5B
:10309000A69CA69EA684550EA76EAA0EA76EA68213
:1030A000A6B2FED7A6940050F2122AD00001F25028
:1030B000006EF29E440EA96EDEC0A8FFA69CA69EDE
:1030C000A6840F01550EA76EAA0EA76EA682A6B201
:1030D000FED7A6940050F212F2CF00F0F29E450EF9
:1030E000A96EDFC0A8FFA69CA69EA684550EA76E5B
:1030F000AA0EA76EA682A6B2FED7A6940050F21220
:1031000000011200E651E819800BEA6FE6AF05D026
:10311000E51FE61FE52BD8B4E62BE8AF05D0E71F87
:10312000E81FE72BD8B4E82B016A026A006A036A39
:10313000E85102E1E75118E0100EE96FD890E53749
:10314000E63700360336E851035C02E1E751005CE4
:1031500007E3E751005ED8A00306E851035ED8807C
:1031600001360236E92FEAD7EAAF05D0011E021E6A
:10317000012AD8B4022A1200E4512009016E12007B
:10318000E0BFD0D0DE51040DF350E26BE16F1A0EB8
:10319000E125016E000EE221036E01C0E3F0E46F51
:1031A000E0C0E6F0DFC0E5F0270EE86F100EE76F35
:1031B000A9DF02C0E6F001C0E5F001C0E7F07AEC5B
:1031C0000AF0E4C0EAFFE3C0E9FF01C0EFFFDE510F
:1031D000040DF350E26BE16F010EE125016E000E6C
:1031E000E221036E01501A0F016E000E032201C08E
:1031F000E1F003C0E2F0E0C0E6F0DFC0E5F0270E4A
:10320000E86F100EE76F7EDF00C0E3F003C0E4F06C
:1032100003C0E6F000C0E5F0030EE86FE80EE76FCC
:1032200071DF02C0E4F001C0E3F001C0E7F07AEC26
:103230000AF0E2C0EAFFE1C0E9FF01C0EFFFDE51A2
:10324000040DF350E26BE16F020EE125016E000EFA
:10325000E221036E01501A0F016E000E032201C01D
:10326000E1F003C0E2F0E0C0E6F0DFC0E5F0030EFD
:10327000E86FE80EE76F46DF00C0E3F003C0E4F05C
:1032800003C0E6F000C0E5F0E86B640EE76F3ADFDC
:1032900002C0E4F001C0E3F001C0E7F07AEC0AF00C
:1032A00001C0E3F001C0E4F067DFE2C0EAFFE1C083
:1032B000E9FF01C0EFFFDE51040DF350E26BE16F57
:1032C000030EE125016E000EE221036E01501A0F7C
:1032D000016E000E032201C0E1F003C0E2F0E0C085
:1032E000E6F0DFC0E5F0E86B640EE76F0BDF00C0CF
:1032F000E3F003C0E4F003C0E6F000C0E5F0E86BE3
:103300000A0EE76FFFDE02C0E4F001C0E3F001C087
:10331000E7F07AEC0AF0E2C0EAFFE1C0E9FF01C0A1
:10332000EFFFBFD0DE51040DF350E26BE16F1A0ED8
:10333000E125E96E000EE221EA6E800EEF6EDE51AD
:10334000040DF350E26BE16F010EE125016E000EFA
:10335000E221036E01501A0F016E000E032201C01C
:10336000E1F003C0E2F0DF1DE36FE01DE46FE32B4B
:10337000D8B4E42BE4C0E6F0E3C0E5F0030EE86F58
:10338000E80EE76FBFDE02C0E4F001C0E3F001C069
:10339000E7F07AEC0AF0E2C0EAFFE1C0E9FF01C021
:1033A000EFFFDE51040DF350E26BE16F020EE125F9
:1033B000016E000EE221036E01501A0F016E000E25
:1033C000032201C0E1F003C0E2F0DF1DE36FE01D66
:1033D000E46FE32BD8B4E42BE4C0E6F0E3C0E5F0FF
:1033E000030EE86FE80EE76F8DDE00C0E3F003C068
:1033F000E4F003C0E6F000C0E5F0E86B640EE76FB0
:1034000081DE02C0E4F001C0E3F001C0E7F07AEC35
:103410000AF001C0E3F001C0E4F0AEDEE2C0EAFF72
:10342000E1C0E9FF01C0EFFFDE51040DF350E26B94
:10343000E16F030EE125016E000EE221036E0150E3
:103440001A0F016E000E032201C0E1F003C0E2F08A
:10345000DF1DE36FE01DE46FE32BD8B4E42BE4C081
:10346000E6F0E3C0E5F0E86B640EE76F4BDE00C00A
:10347000E3F003C0E4F003C0E6F000C0E5F0E86B61
:103480000A0EE76F3FDE02C0E4F001C0E3F001C0C6
:10349000E7F07AEC0AF0E2C0EAFFE1C0E9FF01C020
:1034A000EFFF1200A6C0DEF0A5C0DFF0F250006E04
:1034B000F29E1B0EA96EDEC0A8FFA69CA69EA68447
:1034C0000F01550EA76EAA0EA76EA682A6B2FED752
:1034D000A6940050F212F2CF00F0F29E1C0EA96EDC
:1034E000DFC0A8FFA69CA69EA684550EA76EAA0EB6
:1034F000A76EA682A6B2FED7A6940050F2120001D3
:103500001200F250006EF29E360EA96E8BC0A8FF1C
:10351000A69CA69EA6840F01550EA76EAA0EA76EA6
:10352000A682A6B2FED7A6940050F21200011200A5
:103530003850020A19E0050A23E00F0A24E01D0AA8
:1035400029E0030A39E0010A49E00F0A59E01B0AA1
:10355000D8B46DD0070AD8B479D0010AD8B497D0BE
:103560000C0AD8B4B5D0C1D03B50030A03E0010A1D
:1035700004E005D0020E3B6E02D0010E3B6EBDD0C2
:10358000080E386EBAD00B0E386E010EBE6F7AEC94
:1035900013F0B3D0835302E184530DE0010E835F37
:1035A000000E845B010EDE6F84C0E0F083C0DFF0AC
:1035B000AEEC16F084DCA1D0855302E186530DE019
:1035C000010E855F000E865B010EDE6F86C0E0F0A7
:1035D00085C0DFF0AEEC16F0D3DC8FD0875302E16C
:1035E00088530DE0010E875F000E885B010EDE6FD1
:1035F00088C0E0F087C0DFF0AEEC16F022DD7DD0B1
:10360000A6AF08D0A651F30811E2FF0A03E1A551C5
:1036100048080CE20A0EA55F000EA65B010EDE6FE5
:10362000A6C0E0F0A5C0DFF0ABDD3CDF66D05050B7
:10363000010803E2010E505E02D0070E506E030E29
:10364000DE6F50C0DFF04EEC09F057D04F38DC6F22
:103650000F0EDC174F500F0BDD6FDD5303E0010E33
:10366000DD5F09D0DC5305E0090EDD6F010EDC5F84
:1036700002D0DD6BDC6BDC51100DF350DD254F6E9D
:10368000020EDE6F4FC0DFF04EEC09F036D04E3840
:10369000DC6F0F0EDC174E500F0BDD6FDD5303E0B8
:1036A000010EDD5F09D0090EDD6FDC5303E0010E72
:1036B000DC5F02D0050EDC6FDC51100DF350DD2510
:1036C0004E6E010EDE6F4EC0DFF04EEC09F015D0ED
:1036D0005E5203E0010E5E5E01D05E6A1D0EDE6F7B
:1036E0005EC0DFF04EEC09F008D03B5206E18B5192
:1036F000050803E2010E8B5F04DFC3EF1DF0E65106
:10370000016AE55D03E2E5C000F00CD0006A080E36
:10371000E76FE5370036E651005CD8B0006E013641
:10372000E72FF7D712003850020A19E00A0A23E0FF
:10373000030A24E01E0A27E0030A39E0010A4BE0ED
:103740000F0A5CE01B0AD8B46FD0070AD8B47BD04C
:10375000010AD8B4A3D00C0AD8B4CBD0D8D03B50EF
:10376000010A03E0030A04E005D0020E3B6E02D01A
:10377000030E3B6ED4D0070E386ED1D0080E386ED3
:1037800098EC13F0CCD0845311E1835163080EE31D
:10379000010E8327000E8423010EDE6F84C0E0F04B
:1037A00083C0DFF0AEEC16F05FEC17F0B8D08653B4
:1037B00011E1855163080EE3010E8527000E862373
:1037C000010EDE6F86C0E0F085C0DFF0AEEC16F0D3
:1037D000C0EC17F0A4D0885310E1875163080DE3C3
:1037E000010E8727000E8823010EDE6F88C0E0F0EF
:1037F00087C0DFF0AEEC16F024DC91D0A6BF07D076
:10380000A6510B0810E303E1A551B7080CE30A0E1B
:10381000A527000EA623010EDE6FA6C0E0F0A5C00E
:10382000DFF0AEDC3FDE7BD05050060803E3010E34
:10383000502602D0010E506E030EDE6F50C0DFF036
:103840004EEC09F06CD04F38DC6F0F0EDC174F5088
:103850000F0BDD6FDC510A0DF350DD25170816E361
:10386000010EDD27DDC0E5F00A0EE66F48DF0150EE
:10387000DC27DDC0E5F00A0EE66F41DF00C0DDF0B9
:10388000DC51100DF350DD254F6E01D04F6A020E52
:10389000DE6F4FC0DFF04EEC09F041D04E38DC6FE8
:1038A0000F0EDC174E500F0BDD6FDC510A0DF3507D
:1038B000DD253A0816E3010EDD27DDC0E5F00A0E2E
:1038C000E66F1DDF0150DC27DDC0E5F00A0EE66F74
:1038D00016DF00C0DDF0DC51100DF350DD254E6E1B
:1038E00001D04E6A010EDE6F4EC0DFF04EEC09F0E3
:1038F00016D05E50060803E3010E5E2601D05E6A14
:103900001D0EDE6F5EC0DFF04EEC09F008D03B52BA
:1039100006E18B51090803E3010E8B27F2DDC3EFAB
:103920001DF0382C0FD0DD6B030EDC6F75EC11F041
:10393000180E386E010EDE6FA6C0E0F0A5C0DFF0F5
:103940001FDC0AD03850180807E1DD6B030EDC6F6E
:1039500075EC11F0010E386EC3EF1DF0382C12D04B
:10396000B4EC0BF0DD6B030EDC6F75EC11F0170E91
:10397000386E010EDE6F88C0E0F087C0DFF0AEEC7D
:1039800016F00AD03850170807E1DD6B030EDC6F24
:1039900075EC11F0010E386EC3EF1DF064C0DCF061
:1039A00063C0DDF0F250006EF29E2C0EA96EDCC0FA
:1039B000A8FFA69CA69EA6840F01550EA76EAA0E70
:1039C000A76EA682A6B2FED7A6940050F212F2CF3E
:1039D00000F0F29E2D0EA96EDDC0A8FFA69CA69E4B
:1039E000A684550EA76EAA0EA76EA682A6B2FED713
:1039F000A6940050F212000114EF1DF03850010A95
:103A000005E0030A08E0130A0AE010D0020E386E3F
:103A1000010E3B6E0BD0010E386E3B6A07D062C0C0
:103A200064F061C063F0BAD7626A616AC3EF1DF0E7
:103A3000382C12D0DD6B030EDC6F75EC11F0B4EC9A
:103A40000BF0160E386E010EDE6F86C0E0F085C0FA
:103A5000DFF0AEEC16F00AD03850160807E1DD6B47
:103A6000030EDC6F75EC11F0010E386EC3EF1DF024
:103A7000382C0DD0B4EC0BF0150E386E010EDE6F45
:103A800084C0E0F083C0DFF0AEEC16F005D0385013
:103A9000150802E1010E386EC3EF1DF0DD6B030E59
:103AA000DC6F75EC11F03850010A07E0100A0AE0EB
:103AB000030A08E0060A06E009D0B1EC0CF0110E8A
:103AC000386E04D0626A616A010E386EC3EF1DF071
:103AD00044525AE0DD6B030EDC6F75EC11F0300ED2
:103AE000455CC70F50E2390FE7EF1DF0A2EC0DF077
:103AF0009BEC11F048D0DBEC0DF09BEC11F043D0C7
:103B000014EC0EF09BEC11F03ED04DEC0EF09BEC63
:103B100011F039D086EC0EF09BEC11F034D0BFECF4
:103B20000EF09BEC11F02FD0F8EC0EF09BEC11F0A6
:103B30002AD031EC0FF09BEC11F025D06AEC0FF09D
:103B40009BEC11F020D0B6EF13F01DD0A3EC0FF0DA
:103B50009BEC11F018D0E0EF13F015D074EF14F0D7
:103B600012D00DEF16F00FD0E3D40DD0DCD50BD072
:103B7000D8D609D0F3D607D041D705D059D703D02E
:103B800077D701D08BD7446A5C50170816E35D5095
:103B90003B0813E3DD6B5CC0DCF0DDC0E1F05CC032
:103BA000E0F0E36B3C0EE26FE8EC0AF05D500124BC
:103BB000566E000E0220576E04D0576A566A5C6A31
:103BC0005D6A57C080F056C07FF04EEF34F0E824B5
:103BD000F76AF736E90FF66E3B0EF7220A00F5504A
:103BE000FA6E0800F550F96EEC3AF63A003B0A3BE3
:103BF000143B1E3B283B323B3C3B463B863B863BD3
:103C0000863B863B863B863B863B4C3B563B5C3B40
:103C1000623B683B6C3B863B863B863B863B863BF8
:103C2000863B863B863B863B863B863B863B863B8C
:103C3000863B863B863B863B863B863B863B863B7C
:103C4000863B863B863B863B863B703B743B863B94
:103C5000783B7C3B803B863B843B33821200338441
:103C6000120033861200DD51F10FD8B09FEF22F021
:103C70000F0FA0EF22F0DC51040DF350DF6BDE6F6D
:103C80001A0EDE25E96E000EDF21EA6ED60EEF6E0B
:103C9000DC51040DF350DF6BDE6F020EDE25016E8A
:103CA000000EDF21036E01501A0FE96E000E032093
:103CB000EA6EEF6ADC51040DF350DF6BDE6F030E2A
:103CC000DE25016E000EDF21036E01501A0FE96E32
:103CD000000E0320EA6EEF6ADC51040DF350DF6B37
:103CE000DE6F010EDE25016E000EDF21036E015036
:103CF0001A0F016E000E032201C0DEF003C0DFF0D8
:103D0000010EE76F7AEC0AF0DFC0EAFFDEC0E9FFE0
:103D100001C0EFFF010EBC6F9FEF22F0DC51040DDC
:103D2000F350DF6BDE6F1A0EDE25E96E000EDF2129
:103D3000EA6ED60EEF6EDC51040DF350DF6BDE6FD2
:103D4000020EDE25016E000EDF21036E01501A0FF8
:103D5000E96E000E0320EA6EEF6ADC51040DF350A9
:103D6000DF6BDE6F030EDE25016E000EDF21036EBA
:103D700001501A0FE96E000E0320EA6EEF6ADC5163
:103D8000040DF350DF6BDE6F010EDE25016E000EB9
:103D9000DF21036E01501A0F016E000E032201C0D5
:103DA000DEF003C0DFF0020EE76F7AEC0AF0DFC04E
:103DB000EAFFDEC0E9FF01C0EFFF020EBC6FBFD318
:103DC000DC51040DF350DF6BDE6F1A0EDE25E96E59
:103DD000000EDF21EA6EDC0EEF6EDC51040DF350B5
:103DE000DF6BDE6F020EDE25016E000EDF21036E3B
:103DF00001501A0FE96E000E0320EA6EEF6ADC51E3
:103E0000040DF350DF6BDE6F030EDE25016E000E36
:103E1000DF21036E01501A0FE96E000E0320EA6ED7
:103E2000EF6ADC51040DF350DF6BDE6F010EDE250F
:103E3000016E000EDF21036E01501A0FE96E000EB5
:103E40000320EA6EEF6A7BD3DC51040DF350DF6B85
:103E5000DE6F1A0EDE25E96E000EDF21EA6E440EDB
:103E6000EF6EDC51040DF350DF6BDE6F020EDE25CA
:103E7000016E000EDF21036E01501A0FE96E000E75
:103E80000320EA6EEF6ADC51040DF350DF6BDE6F46
:103E9000030EDE25016E000EDF21036E01501A0FA6
:103EA000E96E000E0320EA6EEF6ADC51040DF35058
:103EB000DF6BDE6F010EDE25016E000EDF21036E6B
:103EC00001501A0FE96E000E0320EA6EEF6A37D335
:103ED000DC51040DF350DF6BDE6F1A0EDE25E96E48
:103EE000000EDF21EA6E8F0EEF6EDC51040DF350F1
:103EF000DF6BDE6F020EDE25016E000EDF21036E2A
:103F000001501A0FE96E000E0320EA6EEF6ADC51D1
:103F1000040DF350DF6BDE6F030EDE25016E000E25
:103F2000DF21036E01501A0FE96E000E0320EA6EC6
:103F3000EF6ADC51040DF350DF6BDE6F010EDE25FE
:103F4000016E000EDF21036E01501A0FE96E000EA4
:103F50000320EA6EEF6AF3D2DC51040DF350DF6BFD
:103F6000DE6F1A0EDE25E96E000EDF21EA6ED60E38
:103F7000EF6EDC51040DF350DF6BDE6F020EDE25B9
:103F8000016E000EDF21036E01501A0FE96E000E64
:103F90000320EA6EAF0EEF6EDC51040DF350DF6BC1
:103FA000DE6F030EDE25016E000EDF21036E015071
:103FB0001A0FE96E000E0320EA6EEF6ADC51040D61
:103FC000F350DF6BDE6F010EDE25016E000EDF2188
:103FD000036E01501A0FE96E000E0320EA6E850E83
:103FE000EF6EADD2DC51040DF350DF6BDE6F1A0EB5
:103FF000DE25E96E000EDF21EA6EEF6ADC51040D6A
:10400000F350DF6BDE6F010EDE25016E000EDF2147
:10401000036E01501A0FE96E000E0320EA6EEF6A7C
:10402000DC51040DF350DF6BDE6F020EDE25016EF6
:10403000000EDF21036E01501A0FE96E000E0320FF
:10404000EA6E540EEF6EDC51040DF350DF6BDE6F41
:10405000030EDE25016E000EDF21036E01501A0FE4
:10406000016E000E032201C0DEF003C0DFF0020E7D
:10407000E76F7AEC0AF0DFC0EAFFDEC0E9FF01C0BB
:10408000EFFF5DD2DC51040DF350DF6BDE6F1A0ED3
:10409000DE25E96E000EDF21EA6EEF6ADC51040DC9
:1040A000F350DF6BDE6F010EDE25016E000EDF21A7
:1040B000036E01501A0FE96E000E0320EA6EEF6ADC
:1040C000DC51040DF350DF6BDE6F020EDE25016E56
:1040D000000EDF21036E01501A0FE96E000E03205F
:1040E000EA6E540EEF6EDC51040DF350DF6BDE6FA1
:1040F000030EDE25016E000EDF21036E01501A0F44
:10410000016E000E032201C0DEF003C0DFF0030EDB
:10411000E76F7AEC0AF0DFC0EAFFDEC0E9FF01C01A
:10412000EFFF0DD2DC51040DF350DF6BDE6F1A0E82
:10413000DE25E96E000EDF21EA6EEF6ADC51040D28
:10414000F350DF6BDE6F010EDE25016E000EDF2106
:10415000036E01501A0FE96E000E0320EA6EEF6A3B
:10416000DC51040DF350DF6BDE6F020EDE25016EB5
:10417000000EDF21036E01501A0FE96E000E0320BE
:10418000EA6E540EEF6EDC51040DF350DF6BDE6F00
:10419000030EDE25016E000EDF21036E01501A0FA3
:1041A000016E000E032201C0DEF003C0DFF0040E3A
:1041B000E76F7AEC0AF0DFC0EAFFDEC0E9FF01C07A
:1041C000EFFFBDD1DC51040DF350DF6BDE6F1A0E33
:1041D000DE25E96E000EDF21EA6EEF6ADC51040D88
:1041E000F350DF6BDE6F010EDE25016E000EDF2166
:1041F000036E01501A0FE96E000E0320EA6EEF6A9B
:10420000DC51040DF350DF6BDE6F020EDE25016E14
:10421000000EDF21036E01501A0FE96E000E03201D
:10422000EA6E540EEF6EDC51040DF350DF6BDE6F5F
:10423000030EDE25016E000EDF21036E01501A0F02
:10424000016E000E032201C0DEF003C0DFF0050E98
:10425000E76F7AEC0AF0DFC0EAFFDEC0E9FF01C0D9
:10426000EFFF6DD1DC51040DF350DF6BDE6F1A0EE2
:10427000DE25E96E000EDF21EA6EEF6ADC51040DE7
:10428000F350DF6BDE6F010EDE25016E000EDF21C5
:10429000036E01501A0FE96E000E0320EA6EEF6AFA
:1042A000DC51040DF350DF6BDE6F020EDE25016E74
:1042B000000EDF21036E01501A0FE96E000E03207D
:1042C000EA6E540EEF6EDC51040DF350DF6BDE6FBF
:1042D000030EDE25016E000EDF21036E01501A0F62
:1042E000016E000E032201C0DEF003C0DFF0060EF7
:1042F000E76F7AEC0AF0DFC0EAFFDEC0E9FF01C039
:10430000EFFF1DD1DC51040DF350DF6BDE6F1A0E91
:10431000DE25E96E000EDF21EA6EEF6ADC51040D46
:10432000F350DF6BDE6F010EDE25016E000EDF2124
:10433000036E01501A0FE96E000E0320EA6EEF6A59
:10434000DC51040DF350DF6BDE6F020EDE25016ED3
:10435000000EDF21036E01501A0FE96E000E0320DC
:10436000EA6E540EEF6EDC51040DF350DF6BDE6F1E
:10437000030EDE25016E000EDF21036E01501A0FC1
:10438000016E000E032201C0DEF003C0DFF0070E55
:10439000E76F7AEC0AF0DFC0EAFFDEC0E9FF01C098
:1043A000EFFFCDD0DC51040DF350DF6BDE6F1A0E42
:1043B000DE25E96E000EDF21EA6EEF6ADC51040DA6
:1043C000F350DF6BDE6F010EDE25016E000EDF2184
:1043D000036E01501A0FE96E000E0320EA6EEF6AB9
:1043E000DC51040DF350DF6BDE6F020EDE25016E33
:1043F000000EDF21036E01501A0FE96E000E03203C
:10440000EA6E560EEF6EDC51040DF350DF6BDE6F7B
:10441000030EDE25016E000EDF21036E01501A0F20
:10442000E96E000E0320EA6E850EEF6E88D0DC5137
:10443000040DF350DF6BDE6F1A0EDE25E96E000E01
:10444000DF21EA6EEF6ADC51040DF350DF6BDE6FA3
:10445000010EDE25016E000EDF21036E01501A0FE2
:10446000E96E000E0320EA6EDD0EEF6EDC51040DE6
:10447000F350DF6BDE6F020EDE25016E000EDF21D2
:10448000036E01501A0FE96E000E0320EA6E460E0D
:10449000EF6EDC51040DF350DF6BDE6F030EDE2593
:1044A000016E000EDF21036E01501A0FE96E000E3F
:1044B0000320EA6E460EEF6E42D0DC51040DF3503D
:1044C000DF6BDE6F1A0EDE25E96E000EDF21EA6E6D
:1044D000EF6ADC51040DF350DF6BDE6F010EDE2559
:1044E000016E000EDF21036E01501A0FE96E000EFF
:1044F0000320EA6EEF6ADC51040DF350DF6BDE6FD0
:10450000020EDE25016E000EDF21036E01501A0F30
:10451000E96E000E0320EA6EEF6ADC51040DF350E1
:10452000DF6BDE6F030EDE25016E000EDF21036EF2
:1045300001501A0FE96E000E0320EA6EEF6A1200B6
:10454000E824F76AF7365B0FF66E450EF7220A008D
:10455000F550FA6E0800F550F96E763C1C3DC03DF2
:10456000483ED03E583FA443E43F84402441C441E8
:10457000644204432E44BA4433901200339612002E
:10458000DEBF9FD1DEBFE2D0DE512608D8B0DED03C
:10459000FF0A04E1DD510F08D8B0D8D0DC51040D7A
:1045A000F350E06BDF6F1A0EDF25016E000EE02185
:1045B000036E01C0E1F0E26FDEC0E6F0DDC0E5F0C1
:1045C000270EE86F100EE76F82EC18F002C0E4F0DF
:1045D00001C0E3F001C0E7F07AEC0AF0E2C0EAFFC4
:1045E000E1C0E9FF01C0EFFFDC51040DF350E06BC7
:1045F000DF6F010EDF25016E000EE021036E01501A
:104600001A0F016E000E032201C0DFF003C0E0F0BC
:10461000DEC0E6F0DDC0E5F0270EE86F100EE76FB4
:1046200082EC18F000C0E1F003C0E2F003C0E6F055
:1046300000C0E5F0030EE86FE80EE76F82EC18F0BB
:1046400002C0E2F001C0E1F001C0E7F07AEC0AF04C
:10465000E0C0EAFFDFC0E9FF01C0EFFFDC51040D5D
:10466000F350E06BDF6F020EDF25016E000EE021DC
:10467000036E01501A0F016E000E032201C0DFF01D
:1046800003C0E0F0DEC0E6F0DDC0E5F0030EE86F49
:10469000E80EE76F82EC18F000C0E1F003C0E2F032
:1046A00003C0E6F000C0E5F0E86B640EE76F82EC53
:1046B00018F002C0E2F001C0E1F001C0E7F07AECCE
:1046C0000AF001C0E1F001C0E4F0BCEC18F0E0C079
:1046D000EAFFDFC0E9FF01C0EFFFDC51040DF3503A
:1046E000E06BDF6F030EDF25016E000EE021036E2D
:1046F00001501A0F016E000E032201C0DFF003C04B
:10470000E0F0DEC0E6F0DDC0E5F0E86B640EE76FD8
:1047100082EC18F000C0E1F003C0E2F003C0E6F064
:1047200000C0E5F0E86B0A0EE76F82EC18F002C0FB
:10473000E2F001C0E1F001C0E7F07AEC0AF0E0C07D
:10474000EAFFDFC0E9FF01C0EFFFBAD0DC51040D82
:10475000F350E06BDF6F1A0EDF25016E000EE021D3
:10476000036E01C0E1F0E26FDEC0E6F0DDC0E5F00F
:10477000030EE86FE80EE76F82EC18F002C0E4F079
:1047800001C0E3F001C0E7F07AEC0AF0E2C0EAFF12
:10479000E1C0E9FF01C0EFFFDC51040DF350E06B15
:1047A000DF6F010EDF25016E000EE021036E015068
:1047B0001A0F016E000E032201C0DFF003C0E0F00B
:1047C000DEC0E6F0DDC0E5F0030EE86FE80EE76F4F
:1047D00082EC18F000C0E1F003C0E2F003C0E6F0A4
:1047E00000C0E5F0E86B640EE76F82EC18F002C0E1
:1047F000E2F001C0E1F001C0E7F07AEC0AF001C09C
:10480000E1F001C0E4F0BCEC18F0E0C0EAFFDFC06A
:10481000E9FF01C0EFFFDC51040DF350E06BDF6FE7
:10482000020EDF25016E000EE021036E01501A0F0B
:10483000016E000E032201C0DFF003C0E0F0DEC015
:10484000E6F0DDC0E5F0E86B640EE76F82EC18F08F
:1048500000C0E1F003C0E2F003C0E6F000C0E5F004
:10486000E86B0A0EE76F82EC18F002C0E2F001C0BC
:10487000E1F001C0E7F07AEC0AF0E0C0EAFFDFC047
:10488000E9FF01C0EFFFDC51040DF350E06BDF6F77
:10489000030EDF25016E000EE021036E01501A0F9A
:1048A000016E000E032201C0DFF003C0E0F0E76BF1
:1048B0007AEC0AF0E0C0EAFFDFC0E9FF01C0EFFFD9
:1048C000C5D0DC51040DF350E06BDF6F1A0EDF250D
:1048D000E96E000EE021EA6E800EEF6EDC51040DF1
:1048E000F350E06BDF6F010EDF25016E000EE0215B
:1048F000036E01501A0F016E000E032201C0DFF09B
:1049000003C0E0F0DD1DE16FDE1DE26FE12BD8B4E6
:10491000E22BE2C0E6F0E1C0E5F0030EE86FE80E3E
:10492000E76F82EC18F002C0E2F001C0E1F001C0D4
:10493000E7F07AEC0AF0E0C0EAFFDFC0E9FF01C06F
:10494000EFFFDC51040DF350E06BDF6F020EDF254B
:10495000016E000EE021036E01501A0F016E000E71
:10496000032201C0DFF003C0E0F0DD1DE16FDE1DBA
:10497000E26FE12BD8B4E22BE2C0E6F0E1C0E5F053
:10498000030EE86FE80EE76F82EC18F000C0E1F06C
:1049900003C0E2F003C0E6F000C0E5F0E86B640E8F
:1049A000E76F82EC18F002C0E2F001C0E1F001C054
:1049B000E7F07AEC0AF001C0E1F001C0E4F0BCECF1
:1049C00018F0E0C0EAFFDFC0E9FF01C0EFFFDC51F3
:1049D000040DF350E06BDF6F030EDF25016E000E58
:1049E000E021036E01501A0F016E000E032201C078
:1049F000DFF003C0E0F0DD1DE16FDE1DE26FE12BB3
:104A0000D8B4E22BE2C0E6F0E1C0E5F0E86B640E5A
:104A1000E76F82EC18F000C0E1F003C0E2F003C0E1
:104A2000E6F000C0E5F0E86B0A0EE76F82EC18F0E4
:104A300002C0E2F001C0E1F001C0E7F07AEC0AF058
:104A4000E0C0EAFFDFC0E9FF01C0EFFF1200DEC0F7
:104A5000E6F0DDC0E5F0E86B3C0EE76F7AEC11F0B4
:104A600001C0DFF0DEC0E6F0DDC0E5F0E86B3C0E33
:104A7000E76F7AEC11F000C0E0F0DC51040DF35068
:104A8000E26BE16F1A0EE125016E000EE221036E6A
:104A900001C0E3F0E46FDFC0E5F00A0EE66F7FECE3
:104AA0001BF001C0E5F001C0E7F07AEC0AF0E4C0C9
:104AB000EAFFE3C0E9FF01C0EFFFDC51040DF35052
:104AC000E26BE16F010EE125016E000EE221036E43
:104AD00001501A0F016E000E032201C0E1F003C065
:104AE000E2F0DFC0E5F00A0EE66F7FEC1BF000C0DD
:104AF000E3F000C0E7F07AEC0AF001C0E3F001C097
:104B0000E4F0BCEC18F0E2C0EAFFE1C0E9FF01C04C
:104B1000EFFFDC51040DF350E26BE16F020EE12573
:104B2000016E000EE221036E01501A0F016E000E9D
:104B3000032201C0E1F003C0E2F0E0C0E5F00A0E9C
:104B4000E66F7FEC1BF001C0E3F001C0E7F07AEC08
:104B50000AF0E2C0EAFFE1C0E9FF01C0EFFFDC516B
:104B6000040DF350E26BE16F030EE125016E000EC0
:104B7000E221036E01501A0F016E000E032201C0E4
:104B8000E1F003C0E2F0E0C0E5F00A0EE66F7FEC72
:104B90001BF000C0E3F000C0E7F07AEC0AF0E2C0DE
:104BA000EAFFE1C0E9FF01C0EFFF120033921200FB
:104BB00033943DEF27F0196AF2BE198EF29E740EFF
:104BC0000101066F0001D6EC00F019BEF28E01C0A3
:104BD000DCF0DC8F196AF2BE198EF29E740E0101B0
:104BE000066FDCC007F1000184EC00F019BEF28E04
:104BF000BDEF28F0196AF2BE198EF29E740E010103
:104C0000066F0001D6EC00F019BEF28E01C0DCF098
:104C1000DC8D196AF2BE198EF29E740E0101066FC8
:104C2000DCC007F1000184EC00F019BEF28EC7EF82
:104C300028F03DC0E6F03CC0E5F0E86B970EE76F6A
:104C40007AEC11F000C0DCF003C0DDF0DC53D8A436
:104C50000BD3DD53D8A408D3B1EC0AF0010E385CB5
:104C6000E30FD8B000D31D0F97EF29F002EC00F04E
:104C70002DEC1EF02FEC1EF031EC1EF03B50010A23
:104C800005E0030A0AE0010A18E027D01E6A1F6A3D
:104C9000DC0E206E4F0E216E20D01E6A050EE76FCF
:104CA0007AEC0AF001C01FF0800E206E010EE76F53
:104CB0007AEC0AF001C021F010D01E6A050EE76FF1
:104CC0007AEC0AF001C01FF0800E206E020EE76F32
:104CD0007AEC0AF001C021F000D098EC13F0226ABF
:104CE000236A246A256ABFD2DC0E1E6EDD0E1F6E9B
:104CF000050EE76F7AEC0AF001C020F0050EE76FB1
:104D00007AEC0AF001C021F062C0E6F061C0E5F083
:104D1000030EE86FE80EE76F7AEC11F002C0DDF0E9
:104D200001C0DCF001C0E7F07AEC0AF001C022F02B
:104D300062C0E6F061C0E5F0030EE86FE80EE76FD1
:104D40007AEC11F000C0DCF003C0DDF003C0E6F047
:104D500000C0E5F0E86B640EE76F7AEC11F002C07A
:104D6000DDF001C0DCF001C0E7F07AEC0AF001C030
:104D700023F062C0E6F061C0E5F0E86B640EE76F17
:104D80007AEC11F000C0DCF003C0DDF003C0E6F007
:104D900000C0E5F0E86B0A0EE76F7AEC11F002C094
:104DA000DDF001C0DCF001C0E7F07AEC0AF001C0F0
:104DB00024F062C0E6F061C0E5F0E86B0A0EE76F30
:104DC0007AEC11F000C0DCF003C0DDF000C0E7F0C9
:104DD0007AEC0AF001C025F046D202EC00F02DEC8E
:104DE0001EF02FEC1EF031EC1EF0B1EC0CF01E6A40
:104DF000050EE76F7AEC0AF001C01FF0D60E206EA8
:104E0000540E216E020EDC6F0E0EDD6F33EC1EF0C1
:104E10002AD2BCEC22F02DEC1EF02FEC1EF0BEECE2
:104E200022F0010EDC6F66C0DEF065C0DDF0C0EC84
:104E300022F0020EDC6F82C0DEF081C0DDF007DE02
:104E400012D202EC00F0B2DE2FEC1EF0BEEC22F02B
:104E5000010EDC6F68C0DEF067C0DDF0C0EC22F050
:104E6000020EDC6F82C0DEF081C0DDF0F0DDFBD130
:104E700002EC00F02DEC1EF09BD631EC1EF05E50E3
:104E8000F80F3AE2080F6AEF29F0010EDC6F060E08
:104E9000DD6F33EC1EF030D0010EDC6F070EDD6FDE
:104EA00033EC1EF029D0010EDC6F080EDD6F33EC01
:104EB0001EF022D0010EDC6F090EDD6F33EC1EF008
:104EC0001BD0010EDC6F0A0EDD6F33EC1EF014D028
:104ED000010EDC6F0B0EDD6F33EC1EF00DD0010EFA
:104EE000DC6F0C0EDD6F33EC1EF006D0010EDC6FB4
:104EF0000D0EDD6F33EC1EF0020EDC6F80C0DEF0B5
:104F00007FC0DDF0A4DDAFD102EC00F04FDE2FEC6E
:104F10001EF0BEEC22F0010EDC6F68C0DEF067C050
:104F2000DDF0C0EC22F0020EDC6F82C0DEF081C04A
:104F3000DDF08DDD98D1B1EC0CF01E6A1F6A440ED5
:104F4000206E8F0E216E97C0E6F096C0E5F0030E3E
:104F5000E86FE80EE76F7AEC11F002C0DDF001C0F7
:104F6000DCF001C0E7F07AEC0AF001C022F097C053
:104F7000E6F096C0E5F0030EE86FE80EE76F7AEC16
:104F800011F000C0DCF003C0DDF003C0E6F000C0AB
:104F9000E5F0E86B640EE76F7AEC11F002C0DDF02B
:104FA00001C0DCF001C0E7F07AEC0AF001C023F0A8
:104FB00097C0E6F096C0E5F0E86B640EE76F7AEC18
:104FC00011F000C0DCF003C0DDF003C0E6F000C06B
:104FD000E5F0E86B0A0EE76F7AEC11F002C0DDF045
:104FE00001C0DCF001C0E7F07AEC0AF001C024F067
:104FF00097C0E6F096C0E5F0E86B0A0EE76F7AEC32
:1050000011F000C0DCF003C0DDF000C0E7F07AEC86
:105010000AF001C025F027D1BCEC22F02DEC1EF0E7
:105020002FEC1EF0BEEC22F0010EDC6F6AC0DEF049
:1050300069C0DDF0C0EC22F0020EDC6F82C0DEF051
:1050400081C0DDF004DD68506A5C1EE303E1675057
:10505000695C1AE3010EDD6FF40EDC6F75EC11F084
:105060001E0E386E38C039F06A507C0806E2010E18
:10507000DC6FDD6B33EC1EF006D0010EDC6FDD6FF4
:1050800033EC1EF093DD02D02DEC1EF0ECD0BCEC26
:1050900022F02DEC1EF02FEC1EF0BEEC22F0010EE3
:1050A000DC6F6AC0DEF069C0DDF0C0EC22F0020EF9
:1050B000DC6F8AC0DEF089C0DDF0C9DC68506A5C54
:1050C0001EE303E16750695C1AE3010EDD6FF40E25
:1050D000DC6F75EC11F01E0E386E38C039F06A5076
:1050E0007C0806E2010EDC6FDD6B33EC1EF006D0AF
:1050F000010EDC6FDD6F33EC1EF058DD02D02DECBD
:105100001EF0B1D0BCEC22F02DEC1EF02FEC1EF006
:1051100031EC1EF0010EDC6F6AC0DEF069C0DDF01C
:10512000C0EC22F0020EDC6FDE6BDD6B90DC6850B1
:105130006A5C1EE303E16750695C1AE3010EDD6FF0
:10514000F40EDC6F75EC11F01E0E386E38C039F0BD
:105150006A507C0806E2010EDC6FDD6B33EC1EF05A
:1051600006D0010EDC6FDD6F33EC1EF01FDD02D0C8
:105170002DEC1EF078D077D01ED5010EDE6F84C0E6
:10518000E0F083C0DFF0AEEC16F06DD033D5010E49
:10519000DE6F86C0E0F085C0DFF0AEEC16F063D0C5
:1051A000BDEC0FF0010EDE6F88C0E0F087C0DFF0CD
:1051B000AEEC16F058D0BCEC22F02DEC1EF02FEC2B
:1051C0001EF031EC1EF0010EDC6F6AC0DEF069C02B
:1051D000DDF0C0EC22F0020EDC6F050EDD6F33EC6B
:1051E0001EF041D0BCEC22F02DEC1EF02FEC1EF096
:1051F000BEEC22F0010EDC6F66C0DEF065C0DDF0B3
:10520000C0EC22F0020EDC6F82C0DEF081C0DDF067
:105210001EDCB1EC0CF0010E3A5CF50F23E20B0F33
:105220007FEF29F0EDEC0CF01DD0BDEC0DF01AD0A5
:10523000F6EC0DF017D02FEC0EF014D068EC0EF059
:1052400011D0A1EC0EF00ED0DAEC0EF00BD013EC76
:105250000FF008D04CEC0FF005D085EC0FF002D029
:10526000BDEC0FF000D034D03C50280831E13D5265
:105270002FE1020E385CEA0F2BE2160FC1EF29F086
:10528000FE0E341225D01A6A1B6A22D01C6A1D6ACF
:105290001FD033801DD033821BD03384010EDC6FCE
:1052A0000E0EDD6F33EC1EF013D0010EDC6F0E0E10
:1052B000DD6F33EC1EF00CD03384020EDC6F0E0E6B
:1052C000DD6F33EC1EF004D0338602D0B1EC0CF06D
:1052D00050EF34F0E824F76AF736EF0FF66E520E0F
:1052E000F7220A00F550FA6E0800F550F96EEC4E00
:1052F0008A4E984EA64EB44EC24ED04EDE4EE82494
:10530000F76AF736190FF66E530EF7220A00F550BA
:10531000FA6E0800F550F96E24522A523052365275
:105320003C52425248524E5254525A526052E82411
:10533000F76AF736490FF66E530EF7220A00F5505A
:10534000FA6E0800F550F96EE4516C4C66526652E4
:105350006652DA4D124E424E704E704E084F6652F3
:105360006652665266526652E84CE84C6652364FB8
:1053700078518C51A0516652704E18508E50045185
:10538000B651E824F76AF7369D0FF66E530EF722F2
:105390000A00F550FA6E0800F550F96EAA528052D4
:1053A00086528C52D052925296529A52B852C85249
:1053B000D052D052D052D052D052D052D052D052DD
:1053C000D052CC52CC52CC52DE510F0BDF6FDE39B3
:1053D000006E0F0E001600500A0DF3CFE0F0DF5103
:1053E000E025016E12000900F5520DE0F6CFDCF069
:1053F000F7CFDDF0F5509EA8FED7AD6EDCC0F6FF0E
:10540000DDC0F7FFF0D712000900F5520DE0F6CF2E
:10541000DCF0F7CFDDF0F5509EA8FED7AD6EDCC016
:10542000F6FFDDC0F7FFF0D71200200EE0A9300E26
:10543000E16FDFC000F0DFAF08D0001E002A00C01F
:10544000DFF02D0EE16FE08FE0810150DFC0E5F06D
:10545000640EE66F7FEC1BF000C0DFF0300E01241D
:10546000E26FDFC0E5F00A0EE66F7FEC1BF0300E56
:105470000024E46F300E0124E36FE1C000F0300E31
:10548000E25D04E0E083E0BFE08512D0E1C0E2F03D
:10549000200EE16F300EE35D04E0E081E0BFE083C9
:1054A00007D0D8A4E08104E1E2C0E3F0200EE26F6F
:1054B000E0B505D0E0B307D0E0B109D00CD0E151A0
:1054C0009EA8FED7AD6EE2519EA8FED7AD6EE35109
:1054D0009EA8FED7AD6EE4519EA8FED7AD6E120019
:1054E0000900F6CFE0F0F7CFE1F0F5509EA8FED727
:1054F000AD6EE0C0F6FFE1C0F7FFDF2FF1D712007D
:10550000E951B608E96F036AEAC0EDF0EA8FD89076
:10551000EA33EB33EC330332023201320032E92F4B
:10552000F6D7EDAF0BD0001E011E021E031E002A8F
:10553000D8B4012AD8B4022AD8B4032A17EF2BF022
:10554000D8B203D0EA6AF10EE96E006A016A026A13
:10555000036AF16BF26BF36BF46BF051EF11EE1128
:10556000ED112CE0200EF56FD890E937EA37EB37D4
:10557000EC37F137F237F337F437F051F45D08E1E7
:10558000EF51F35D05E1EE51F25D02E1ED51F15DA8
:105590000FE3ED51F15FEE51D8A0EE3DF25FEF5118
:1055A000D8A0EF3DF35FF051D8A0F03DF45FD88074
:1055B0000036013602360336F52FD6D7F1C0EFFF9D
:1055C000F2C0ECFFF3C0ECFFF4C0ECFF1200E950B6
:1055D000E16FE051E36F22E0196AF2BE198EF29E8C
:1055E000DFC009F1DEC008F1DDC007F1DCC006F163
:1055F00001010D6B0C6B200E0B6F820E0A6F000108
:1056000009EC02F019BEF28E03C0DFF002C0DEF03A
:1056100001C0DDF000C0DCF0E32FDED7DFC0ECF02E
:10562000DEC0EBF0DDC0EAF0DCC0E9F069D703C012
:10563000DFF002C0DEF001C0DDF000C0DCF0DFAF63
:105640000DD0E107E18BDC1FDD1FDE1FDF1FDC2B30
:10565000D8B4DD2BD8B4DE2BD8B4DF2B3B0EE86FEB
:105660009A0EE76FCA0EE66FE56B0A0EE36FE05124
:10567000D8B4E12BD882EA6ADC0EE96EDFC0ECF028
:10568000DEC0EBF0DDC0EAF0DCC0E9F0E8C0F0F02D
:10569000E7C0EFF0E6C0EEF0E5C0EDF051DF0150FD
:1056A00000520FE1E029E35D0CE0E1510CE00F0B4B
:1056B000E35D01E03BE2E1BF39D0E1BD04D0200E63
:1056C00030D0200EE117E1AB0DD0E19BE051D8A422
:1056D000E1070050E16F2D0E9EA8FED7AD6EE1519F
:1056E000006EE16BE051E35D0BE10050E16F2E0EC7
:1056F0009EA8FED7AD6EE151006E200EE117000EA0
:10570000300EE1AB0ED0E19BE051D8A4E107005090
:10571000E16F2D0E9EA8FED7AD6EE151006EE16BDC
:10572000300E002600509EA8FED7AD6ED892E8C07D
:10573000ECF0E7C0EBF0E6C0EAF0E5C0E9F0F06BB2
:10574000EF6BEE6B0A0EED6FFBDE03C0E8F002C0FC
:10575000E7F001C0E6F000C0E5F0E32F8BD71200C0
:10576000196AF2BE198EF29E6AC007F169C006F18D
:10577000B1EC01F019BEF28E196AF2BE198EF29EDA
:1057800003C00DF102C00CF101C00BF100C00AF121
:105790000101116B106B480E0F6F850E0E6F00012B
:1057A00084EC02F019BEF28E03C0CEF002C0CDF040
:1057B00001C0CCF000C0CBF04EC0CFF0C02DA6D0C1
:1057C0004FC0DEF001DE5C50015C06E14EC0DEF051
:1057D000FBDD5D50015C06E05652D8A497D05752CD
:1057E000D8A494D050C0DEF0EFDD5E50015C03E041
:1057F0005E52D8A48BD0640EF66E0B0EF76EF3DDFE
:105800000D0E9EA8FED7AD6E0A0E9EA8FED7AD6EF9
:10581000D20EF66E0B0EF76EF7DDDA0EF66E0B0E8D
:10582000F76EF2DD3A500B0836E0010E3A5CF60FE7
:1058300020E20A0F27EF2EF0010ED16F1AD0020ED0
:10584000D16F17D0030ED16F14D0040ED16F11D0C9
:10585000050ED16F0ED0060ED16F0BD0070ED16F93
:1058600008D0080ED16F05D0090ED16F02D00A0EF4
:10587000D16F500E9EA8FED7AD6ED1C0DFF0180ECE
:10588000E06FD3DD0D0E9EA8FED7AD6E0A0E9EA86A
:10589000FED7AD6E05D0F20EF66E0B0EF76EB4DDD0
:1058A0004FC0DEF091DD01C0DCF04EC0DEF08CDDDB
:1058B00001C0DDF04DC0DEF087DD01C0DEF0FA0E84
:1058C000F66E0B0EF76E120EDF6F0ADEDCC0DFF035
:1058D000180EE06FAADD3A0E9EA8FED7AD6EDDC0B1
:1058E000DFF0180EE06FA1DD3A0E9EA8FED7AD6E78
:1058F000DEC0DFF0180EE06F98DD0D0E9EA8FED71B
:10590000AD6E0A0E9EA8FED7AD6EC06B38501B0858
:10591000D8A480D0D051CF5DD8B47CD0CFC0D0F047
:10592000C12D06D0C16B180EF66E0C0EF76E6CDD35
:10593000196AF2BE198EF29E0101096B086B480EBE
:10594000076F850E066FCEC00DF1CDC00CF1CCC037
:105950000BF1CBC00AF10001CCEC01F019BEF28EC4
:1059600001E212E1200E9EA8FED7AD6E890EE96E0F
:10597000CEC0DFF0CDC0DEF0CCC0DDF0CBC0DCF0BF
:10598000010EE06F24DE11D0200E9EA8FED7AD6E72
:10599000890EE96ECEC0DFF0CDC0DEF0CCC0DDF008
:1059A000CBC0DCF0020EE06F12DE4FC0DEF00CDD8B
:1059B00001C0DCF04EC0DEF007DD01C0DDF04DC0FF
:1059C000DEF002DD01C0DEF0360EF66E0C0EF76E74
:1059D0000D0EDF6F85DDDCC0DFF0180EE06F25DD1A
:1059E0003A0E9EA8FED7AD6EDDC0DFF0180EE06F58
:1059F0001CDD3A0E9EA8FED7AD6EDEC0DFF0180E9D
:105A0000E06F13DD0D0E9EA8FED7AD6E0A0E9EA8A8
:105A1000FED7AD6E38501D0866E1C22D64D0C26B52
:105A20004FC0DEF0D1DC01C0DCF04EC0DEF0CCDCDB
:105A300001C0DDF04DC0DEF0C7DC01C0DEF04E0E6F
:105A4000F66E0C0EF76E130EDF6F4ADDDCC0DFF072
:105A5000180EE06FEADC3A0E9EA8FED7AD6EDDC0F0
:105A6000DFF0180EE06FE1DC3A0E9EA8FED7AD6EB7
:105A7000DEC0DFF0180EE06FD8DC0D0E9EA8FED75A
:105A8000AD6E0A0E9EA8FED7AD6E6C0EF66E0C0EB5
:105A9000F76EBADC820EF66E0C0EF76EB5DC9A0E5F
:105AA000F66E0C0EF76E9FDC0D0E9EA8FED7AD6E47
:105AB0000A0E9EA8FED7AD6E9E0EF66E0C0EF76E09
:105AC000A3DCC00EF66E0C0EF76E9EDCDC0EF66EDE
:105AD0000C0EF76E88DC0D0E9EA8FED7AD6E0A0E7A
